S00A000052462E7372656382
S11300000C94FE000C941B010C941D010C941B0118
S11300100C941B010C941B010C941B010C941B01EC
S11300200C941B010C941B010C941B010C941B01DC
S11300300C941B010C941B010C941B010C941B01CC
S11300400C941B010C941B010C941B010C941B01BC
S11300500C941B010C941B010C941B010C941B01AC
S11300600C941B010C941B010C941B010C941B019C
S11300700C941B010C941B010C941B010C941B018C
S11300800C941B010C941B010C941B010C941B017C
S11300900C941B010C941B010C941B010C941B016C
S11300A00C941B010C941B010C941B010C941B015C
S11300B00C941B010C941B010C9470010C941B01F7
S11300C00C941B010C941B010C941B010C941B013C
S11300D00C941B010C941B010C941B010C941B012C
S11300E00C941B010C941B010C941B010C941B011C
S11300F00C941B010C941B010C941B010C941B010C
S11301000C941B010C941B010C941B010C941B01FB
S11301100C941B010C941B010C941B010C941B01EB
S11301200C941B010C941B010C941B010C941B01DB
S11301300C941B010C941B010C941B010C941B01CB
S11301400C941B010C941B010C941B010C941B01BB
S11301500C941B010C941B010C941B010C941B01AB
S11301600C941B010C941B010C941B010C941B019B
S11301700C941B010C941B010C941B010C941B018B
S11301800C941B010C941B010C941B010C941B017B
S11301900C941B010C941B010C941B010C941B016B
S11301A00C941B010C941B010C941B010C941B015B
S11301B00C941B010C941B010C941B010C941B014B
S11301C00C941B010C941B010C941B010C941B013B
S11301D00C941B010C941B010C941B010C941B012B
S11301E00C941B010C941B010C941B010C941B011B
S11301F00C941B010C941B010C941B0111241FBEB5
S1130200CFEFCDBFDFE2DEBF10E2A0E0B0E2E6E870
S1130210F6E002C005900D92A230B107D9F720E2B2
S1130220A2E0B0E201C01D92A332B207E1F70E943E
S113023048010C9441030C9400001F920F920FB6D6
S11302400F9211242F933F934F935F936F937F9358
S11302508F939F93AF93BF93EF93FF93809100206D
S11302600E945E0241E065E087E00E941602FF9171
S1130270EF91BF91AF919F918F917F916F915F911A
S11302804F913F912F910F900FBE0F901F90189593
S11302900E9496010E943A02E0E4F6E084E0828340
S11302A08AE1838B82858460828781E08187E0EAAA
S11302B0F0E082818160828341E065E087E00E9412
S11302C01602809100200E945E027894E8E4F0E037
S11302D08081817F80838081816080838895FECF47
S11302E01F920F920FB60F9211242F933F934F93A7
S11302F05F936F937F938F939F93AF93BF93EF938A
S1130300FF9382E090E20E942803FF91EF91BF9156
S1130310AF919F918F917F916F915F914F913F9199
S11303202F910F900FBE0F901F90189580E180932E
S113033061060895AF92CF92EF920F93E0E4F6E056
S113034082E1818382E08583A12CC12CE12C00E031
S113035020E040E456E060EC78E08CE190E20E941A
S11303607E020F91EF90CF90AF9008950F931F935B
S1130370CF93DF93062FC0E4D6E012E01E83682FEC
S113038060628CE190E20E94AB02602F8CE190E20B
S11303900E94AB021D83DF91CF911F910F910895AD
S11303A01F93CF93DF93C0E4D6E012E01E839DE059
S11303B09A95F1F70000682F8CE190E20E94AB025D
S11303C060E08CE190E20E94AB021D83DF91CF914B
S11303D01F910895EF92FF920F931F93CF93DF9392
S11303E07C01162F82E08093460660EA8CE190E25D
S11303F00E94AB02112381F0E7011150012F10E09C
S11304000F5F1F4F0E0D1F1D69918CE190E20E943A
S1130410AB02C017D107C1F782E080934506DF9194
S1130420CF911F910F91FF90EF9008950F931F9319
S1130430CF93DF93182F042F81E090E0EC0102C0EA
S1130440CC0FDD1F6A95E2F7812F0E94D0010130A5
S113045031F46C2F682B812F0E94B60106C0C09521
S11304606C2F6823812F0E94B601DF91CF911F91D9
S11304700F9108958BE795E10197F1F700C0000013
S11304800E949A01E0E4F6E081E0818386836AE0D9
S113049080E00E94B60160E081E00E94B60168E05D
S11304A086E00E94B60163E185E00E94B60187EE12
S11304B093E00197F1F700C000000895FF920F93B5
S11304C01F93CF93DF931F92CDB7DEB7898300E4E8
S11304D016E0FF24F394F801F582FAE0FA95F1F7B7
S11304E061E0CE0101960E94EA01F801F6820F90C4
S11304F0DF91CF911F910F91FF900895AF92CF920A
S1130500EF920F93FC0160837183428353831482BF
S1130510C11002C080E001C080E89A2D9064A92E29
S1130520A82A211102C080E001C080E2A82A00614B
S11305300A29DB010C93A081B1811196EC921582FA
S113054016820280F381E02D80EA81830F91EF907F
S1130550CF90AF900895DC01ED91FC9111976383E6
S1130560ED91FC9182818823ECF783810895FC014D
S1130570A081B18114969C91149792FF03C084E0EA
S1130580808F02C083E0808F986014969C93178AB2
S11305900895CF93DF93FC0193892489A081B181CD
S11305A014968C91149784FF07C083E013968C9360
S11305B085E0808F178A1CC08589891758F485893E
S11305C0EF01C80FD11D8B8117968C9385898F5F9E
S11305D0858B0EC08689821728F4828181601696E5
S11305E08C9306C083E013968C9381E0808F178AE6
S11305F0DF91CF910895FC018689883070F4A08141
S1130600B18117968C919689DF01A90FB11D1B96B4
S11306108C9386898F5F868B08C0A081B18183E02B
S113062013968C9382E0808F178A94898689891720
S113063030F40190F081E02D82E083830895A0815D
S1130640B18187E013968C9381E0808F178A089597
S1130650DC01ED91FC912481322F3C7019F00E9451
S1130660B702089526FF03C00E94C90208952223F9
S11306701CF40E94FB02089526E0FC01208F178AD7
S10906800895F894FFCF79
S10506860A0064
S9030000FC
