S00C00007A6164312E73726563A8
S11300000C94FE000C9410010C9410010C9410013B
S11300100C9410010C9410010C9410010C94100118
S11300200C9410010C9410010C9410010C94100108
S11300300C9410010C9410010C9410010C941001F8
S11300400C9410010C9410010C9410010C941001E8
S11300500C9410010C9410010C9410010C941001D8
S11300600C9410010C9410010C9410010C941001C8
S11300700C9410010C9410010C9410010C941001B8
S11300800C9410010C9410010C9410010C941001A8
S11300900C9410010C9410010C9410010C94100198
S11300A00C9410010C9410010C9410010C94100188
S11300B00C9410010C9410010C942A010C9410015E
S11300C00C9410010C9410010C9410010C94100168
S11300D00C9410010C9410010C9410010C94100158
S11300E00C9410010C9410010C9410010C94100148
S11300F00C9410010C9410010C9410010C94100138
S11301000C9410010C9410010C9410010C94100127
S11301100C9410010C9410010C9410010C94100117
S11301200C9410010C9410010C9410010C94100107
S11301300C9410010C9410010C9410010C941001F7
S11301400C9410010C9410010C9410010C941001E7
S11301500C9410010C9410010C9410010C941001D7
S11301600C9410010C9410010C9410010C941001C7
S11301700C9410010C9410010C9410010C941001B7
S11301800C9410010C9410010C9410010C941001A7
S11301900C9410010C9410010C9410010C94100197
S11301A00C9410010C9410010C9410010C94100187
S11301B00C9410010C9410010C9410010C94100177
S11301C00C9410010C9410010C9410010C94100167
S11301D00C9410010C9410010C9410010C94100157
S11301E00C9410010C9410010C9410010C94100147
S11301F00C9410010C9410010C94100111241FBED6
S1130200CFEFCDBFDFE2DEBF20E2A0E0B0E201C06D
S11302101D92A232B207E1F70E9412010C94BA02B5
S11302200C9400000E9450010E94BA012FE788E359
S113023091E0215080409040E1F700C0000080919F
S1130240002091E0980F909300200E94DA010E9410
S11302505401ECCF1F920F920FB60F9211242F93DB
S11302603F934F935F936F937F938F939F93AF933A
S1130270BF93EF93FF9381E090E20E94A102FF916C
S1130280EF91BF91AF919F918F917F916F915F910A
S11302904F913F912F910F900FBE0F901F90189583
S11302A080E180936106089580E180936706089554
S11302B0AF92CF92EF920F93E0E4F6E082E1818374
S11302C082E08583A12CC12CE12C00E020E040E4F5
S11302D056E060EC78E08BE190E20E94F7010F9128
S11302E0EF90CF90AF9008950F931F93CF93DF9328
S11302F0062FC0E4D6E012E01E83682F60628BE113
S113030090E20E942402602F8BE190E20E9424027A
S11303101D83DF91CF911F910F910895EF92FF926A
S11303200F931F93CF93DF937C01162F82E080936A
S1130330460660EA8BE190E20E942402112381F0D8
S1130340E7011150012F10E00F5F1F4F0E0D1F1D0D
S113035069918BE190E20E942402C017D107C1F792
S113036082E080934506DF91CF911F910F91FF901A
S1130370EF9008958BE795E10197F1F700C0000035
S11303800E945801E0E4F6E081E0818386836AE21A
S113039080E00E94740160E081E00E94740168E0E2
S11303A086E00E94740187EE93E00197F1F700C0A4
S11303B000000895FF920F931F93CF93DF931F9232
S11303C0CDB7DEB7898300E416E0FF24F394F80187
S11303D0F58261E0CE0101960E948E01F801F68259
S11303E00F90DF91CF911F910F91FF900895AF92DD
S11303F0CF92EF920F93FC01608371834283538306
S11304001482C11002C080E001C080E89A2D90647B
S1130410A92EA82A211102C080E001C080E2A82AE6
S113042000610A29DB010C93A081B1811196EC9241
S1130430158216820280F381E02D80EA81830F9178
S1130440EF90CF90AF900895DC01ED91FC9111975E
S11304506383ED91FC9182818823ECF78381089575
S1130460FC01A081B18114969C91149792FF03C062
S113047084E0808F02C083E0808F986014969C9300
S1130480178A0895CF93DF93FC0193892489A0816F
S1130490B18114968C91149784FF07C083E013965E
S11304A08C9385E0808F178A1CC08589891758F43E
S11304B08589EF01C80FD11D8B8117968C9385898F
S11304C08F5F858B0EC08689821728F482818160B4
S11304D016968C9306C083E013968C9381E0808FEC
S11304E0178ADF91CF910895FC018689883070F4D2
S11304F0A081B18117968C919689DF01A90FB11D56
S11305001B968C9386898F5F868B08C0A081B181EE
S113051083E013968C9382E0808F178A948986896E
S1130520891730F40190F081E02D82E083830895EF
S1130530A081B18187E013968C9381E0808F178A24
S11305400895DC01ED91FC912481322F3C7019F067
S11305500E943002089526FF03C00E9442020895BB
S113056022231CF40E947402089526E0FC01208FCB
S10B0570178A0895F894FFCFE7
S9030000FC
