S01800004144435F4F6E496E74657272757074732E73726563E8
S113000085C10000A4C10000A2C10000A0C100007D
S11300109EC100009CC100009AC1000098C100006C
S113002096C1000094C1000092C1000090C100007C
S11300308EC100008CC100008BC10000B6C100005D
S1130040E1C100000CC2000037C2000062C200001F
S11300508DC20000B8C20000E3C200000EC300005D
S113006076C1000074C1000072C1000070C10000BC
S11300706EC100006CC100006AC1000068C10000CC
S113008066C1000064C1000062C1000060C10000DC
S11300905EC100005CC100005AC100000C94B10BA9
S11300A00C94E30B0C94150C0C94470C50C10000F9
S11300B04EC100004CC100004AC10000CDC4000084
S11300C0F8C4000023C500004EC5000079C5000037
S11300D0A4C50000CFC50000FAC5000025C6000075
S11300E050C6000034C1000032C1000030C100001D
S11300F02EC100002CC100002AC1000028C100004C
S113010026C1000024C1000022C1000020C100005B
S11301101EC100001CC100001AC100000C94E90AB1
S11301200C941B0B0C944D0B0C947F0B10C1000012
S11301300EC10000CFC20000FAC2000025C30000B7
S113014050C300007BC30000A6C30000D1C300005D
S1130150FCC3000027C4000052C40000F8C0000023
S1130160F6C00000F4C00000F2C00000F0C00000BF
S1130170EEC00000ECC00000EAC00000E8C00000CF
S1130180E6C00000E4C00000E2C00000E0C00000DF
S1130190DEC00000DCC00000DAC00000D8C00000EF
S11301A0D6C00000D4C00000D2C00000D0C00000FF
S11301B015C6000040C600006BC6000096C60000CD
S11301C0C1C60000ECC60000C2C00000C0C00000F0
S11301D0BEC00000BCC00000BAC00000B8C000002F
S11301E0B6C00000B4C00000B2C00000B0C000003F
S11301F0AEC00000ACC00000AAC00000DB0DF90DC9
S1130200F40DEF0DEA0DE50DE00D6E616E00696E03
S1130210660000407A10F35A00A0724E18090010CC
S1130220A5D4E80000E87648170000E40B54020067
S113023000CA9A3B000000E1F50500008096980092
S1130240000040420F000000A086010000001027BB
S113025000000000E803000000006400000000004B
S11302600A00000000000100000000002C76D8887D
S1130270DC674F0823DFC1DFAE59E1B1B796E5E390
S1130280E453C63AE651997696E8E6C28426EB89A9
S11302908C9B62ED407C6FFCEFBC9C9F40F2BAA546
S11302A06FA5F490055A2AF75C936B6CF9676DC1DE
S11302B01BFCE0E40D47FEF520E6B500D0ED902EE2
S11302C00300943577050080841E080000204E0A40
S11302D0000000C80C333333330F986E128311417E
S11302E0EF8D2114893BE65516CFFEE6DB18D18449
S11302F04B381BF77C1D901DA4BBE4242032847270
S11303005E228100C9F124ECA1E53D2711241FBE22
S1130310CFEFCDBFDFE5DEBF00E00CBF10E2A0E011
S1130320B0E2ECE1F7E200E00BBF02C007900D92EF
S1130330A830B107D9F720E2A8E0B0E201C01D92CD
S1130340AC35B207E1F70E94B50D0C948C1358CE6E
S11303501F920F920FB60F9211240BB60F922F9388
S11303603F934F935F936F937F938F939F93AF9339
S1130370BF93EF93FF93E0914E20F0914F2030977D
S113038009F01995FF91EF91BF91AF919F918F91D2
S11303907F916F915F914F913F912F910F900BBE81
S11303A00F900FBE0F901F9018951F920F920FB6CB
S11303B00F9211240BB60F922F933F934F935F9399
S11303C06F937F938F939F93AF93BF93EF93FF9319
S11303D0E0914C20F0914D20309709F01995FF9150
S11303E0EF91BF91AF919F918F917F916F915F91A9
S11303F04F913F912F910F900BBE0F900FBE0F9016
S11304001F9018951F920F920FB60F9211240BB6DE
S11304100F922F933F934F935F936F937F938F9399
S11304209F93AF93BF93EF93FF93E0914A20F09192
S11304304B20309709F01995FF91EF91BF91AF913F
S11304409F918F917F916F915F914F913F912F91E8
S11304500F900BBE0F900FBE0F901F9018951F9218
S11304600F920FB60F9211240BB60F922F933F9356
S11304704F935F936F937F938F939F93AF93BF93A8
S1130480EF93FF93E0914820F0914920309709F0D1
S11304901995FF91EF91BF91AF919F918F917F91AA
S11304A06F915F914F913F912F910F900BBE0F90E1
S11304B00FBE0F901F9018951F920F920FB60F92B8
S11304C011240BB60F922F933F934F935F936F9327
S11304D07F938F939F93AF93BF93EF93FF93E09199
S11304E04620F0914720309709F01995FF91EF913C
S11304F0BF91AF919F918F917F916F915F914F9138
S11305003F912F910F900BBE0F900FBE0F901F9035
S113051018951F920F920FB60F9211240BB60F92DB
S11305202F933F934F935F936F937F938F939F93F7
S1130530AF93BF93EF93FF93E0914420F091452054
S1130540309709F01995FF91EF91BF91AF919F9169
S11305508F917F916F915F914F913F912F910F9068
S11305600BBE0F900FBE0F901F9018951F920F9205
S11305700FB60F9211240BB60F922F933F934F9304
S11305805F936F937F938F939F93AF93BF93EF93F7
S1130590FF93E0914220F0914320309709F01995A0
S11305A0FF91EF91BF91AF919F918F917F916F9147
S11305B05F914F913F912F910F900BBE0F900FBE03
S11305C00F901F9018951F920F920FB60F9211243F
S11305D00BB60F922F933F934F935F936F937F9339
S11305E08F939F93AF93BF93EF93FF93E09140203A
S11305F0F0914120309709F01995FF91EF91BF9147
S1130600AF919F918F917F916F915F914F913F91A6
S11306102F910F900BBE0F900FBE0F901F90189547
S11306201F920F920FB60F9211240BB60F922F93B5
S11306303F934F935F936F937F938F939F93AF9366
S1130640BF93EF93FF93E0913E20F0913F203097CA
S113065009F01995FF91EF91BF91AF919F918F91FF
S11306607F916F915F914F913F912F910F900BBEAE
S11306700F900FBE0F901F9018951F920F920FB6F8
S11306800F9211240BB60F922F933F934F935F93C6
S11306906F937F938F939F93AF93BF93EF93FF9346
S11306A0E0913C20F0913D20309709F01995FF919D
S11306B0EF91BF91AF919F918F917F916F915F91D6
S11306C04F913F912F910F900BBE0F900FBE0F9043
S11306D01F9018951F920F920FB60F9211240BB60C
S11306E00F922F933F934F935F936F937F938F93C7
S11306F09F93AF93BF93EF93FF93E0913A20F091D0
S11307003B20309709F01995FF91EF91BF91AF917C
S11307109F918F917F916F915F914F913F912F9115
S11307200F900BBE0F900FBE0F901F9018951F9245
S11307300F920FB60F9211240BB60F922F933F9383
S11307404F935F936F937F938F939F93AF93BF93D5
S1130750EF93FF93E0913820F0913920309709F01E
S11307601995FF91EF91BF91AF919F918F917F91D7
S11307706F915F914F913F912F910F900BBE0F900E
S11307800FBE0F901F9018951F920F920FB60F92E5
S113079011240BB60F922F933F934F935F936F9354
S11307A07F938F939F93AF93BF93EF93FF93E091C6
S11307B03620F0913720309709F01995FF91EF9189
S11307C0BF91AF919F918F917F916F915F914F9165
S11307D03F912F910F900BBE0F900FBE0F901F9063
S11307E018951F920F920FB60F9211240BB60F9209
S11307F02F933F934F935F936F937F938F939F9325
S1130800AF93BF93EF93FF93E0913420F0913520A1
S1130810309709F01995FF91EF91BF91AF919F9196
S11308208F917F916F915F914F913F912F910F9095
S11308300BBE0F900FBE0F901F9018951F920F9232
S11308400FB60F9211240BB60F922F933F934F9331
S11308505F936F937F938F939F93AF93BF93EF9324
S1130860FF93E0913220F0913320309709F01995ED
S1130870FF91EF91BF91AF919F918F917F916F9174
S11308805F914F913F912F910F900BBE0F900FBE30
S11308900F901F9018951F920F920FB60F9211246C
S11308A00BB60F922F933F934F935F936F937F9366
S11308B08F939F93AF93BF93EF93FF93E091302077
S11308C0F0913120309709F01995FF91EF91BF9184
S11308D0AF919F918F917F916F915F914F913F91D4
S11308E02F910F900BBE0F900FBE0F901F90189575
S11308F01F920F920FB60F9211240BB60F922F93E3
S11309003F934F935F936F937F938F939F93AF9393
S1130910BF93EF93FF93E0912E20F0912F20309717
S113092009F01995FF91EF91BF91AF919F918F912C
S11309307F916F915F914F913F912F910F900BBEDB
S11309400F900FBE0F901F9018951F920F920FB625
S11309500F9211240BB60F922F933F934F935F93F3
S11309606F937F938F939F93AF93BF93EF93FF9373
S1130970E0912C20F0912D20309709F01995FF91EA
S1130980EF91BF91AF919F918F917F916F915F9103
S11309904F913F912F910F900BBE0F900FBE0F9070
S11309A01F9018951F920F920FB60F9211240BB639
S11309B00F922F933F934F935F936F937F938F93F4
S11309C09F93AF93BF93EF93FF93E0912A20F0910D
S11309D02B20309709F01995FF91EF91BF91AF91BA
S11309E09F918F917F916F915F914F913F912F9143
S11309F00F900BBE0F900FBE0F901F9018951F9273
S1130A000F920FB60F9211240BB60F922F933F93B0
S1130A104F935F936F937F938F939F93AF93BF9302
S1130A20EF93FF93E0912820F0912920309709F06B
S1130A301995FF91EF91BF91AF919F918F917F9104
S1130A406F915F914F913F912F910F900BBE0F903B
S1130A500FBE0F901F9018951F920F920FB60F9212
S1130A6011240BB60F922F933F934F935F936F9381
S1130A707F938F939F93AF93BF93EF93FF93E091F3
S1130A802620F0912720309709F01995FF91EF91D6
S1130A90BF91AF919F918F917F916F915F914F9192
S1130AA03F912F910F900BBE0F900FBE0F901F9090
S1130AB018951F920F920FB60F9211240BB60F9236
S1130AC02F933F934F935F936F937F938F939F9352
S1130AD0AF93BF93EF93FF93E0912420F0912520EF
S1130AE0309709F01995FF91EF91BF91AF919F91C4
S1130AF08F917F916F915F914F913F912F910F90C3
S1130B000BBE0F900FBE0F901F9018951F920F925F
S1130B100FB60F9211240BB60F922F933F934F935E
S1130B205F936F937F938F939F93AF93BF93EF9351
S1130B30FF93E0912220F0912320309709F019953A
S1130B40FF91EF91BF91AF919F918F917F916F91A1
S1130B505F914F913F912F910F900BBE0F900FBE5D
S1130B600F901F9018951F920F920FB60F92112499
S1130B700BB60F922F933F934F935F936F937F9393
S1130B808F939F93AF93BF93EF93FF93E0912020B4
S1130B90F0912120309709F01995FF91EF91BF91C1
S1130BA0AF919F918F917F916F915F914F913F9101
S1130BB02F910F900BBE0F900FBE0F901F901895A2
S1130BC01F920F920FB60F9211240BB60F922F9310
S1130BD03F934F935F936F937F938F939F93AF93C1
S1130BE0BF93EF93FF93E0911E20F0911F20309765
S1130BF009F01995FF91EF91BF91AF919F918F915A
S1130C007F916F915F914F913F912F910F900BBE08
S1130C100F900FBE0F901F9018951F920F920FB652
S1130C200F9211240BB60F922F933F934F935F9320
S1130C306F937F938F939F93AF93BF93EF93FF93A0
S1130C40E0911C20F0911D20309709F01995FF9137
S1130C50EF91BF91AF919F918F917F916F915F9130
S1130C604F913F912F910F900BBE0F900FBE0F909D
S1130C701F9018951F920F920FB60F9211240BB666
S1130C800F922F933F934F935F936F937F938F9321
S1130C909F93AF93BF93EF93FF93E0911A20F0914A
S1130CA01B20309709F01995FF91EF91BF91AF91F7
S1130CB09F918F917F916F915F914F913F912F9170
S1130CC00F900BBE0F900FBE0F901F9018951F92A0
S1130CD00F920FB60F9211240BB60F922F933F93DE
S1130CE04F935F936F937F938F939F93AF93BF9330
S1130CF0EF93FF93E0911820F0911920309709F0B9
S1130D001995FF91EF91BF91AF919F918F917F9131
S1130D106F915F914F913F912F910F900BBE0F9068
S1130D200FBE0F901F9018951F920F920FB60F923F
S1130D3011240BB60F922F933F934F935F936F93AE
S1130D407F938F939F93AF93BF93EF93FF93E09120
S1130D501620F0911720309709F01995FF91EF9123
S1130D60BF91AF919F918F917F916F915F914F91BF
S1130D703F912F910F900BBE0F900FBE0F901F90BD
S1130D8018951F920F920FB60F9211240BB60F9263
S1130D902F933F934F935F936F937F938F939F937F
S1130DA0AF93BF93EF93FF93E0911420F09115203C
S1130DB0309709F01995FF91EF91BF91AF919F91F1
S1130DC08F917F916F915F914F913F912F910F90F0
S1130DD00BBE0F900FBE0F901F9018951F920F928D
S1130DE00FB60F9211240BB60F922F933F934F938C
S1130DF05F936F937F938F939F93AF93BF93EF937F
S1130E00FF93E0911220F0911320309709F0199587
S1130E10FF91EF91BF91AF919F918F917F916F91CE
S1130E205F914F913F912F910F900BBE0F900FBE8A
S1130E300F901F9018951F920F920FB60F921124C6
S1130E400BB60F922F933F934F935F936F937F93C0
S1130E508F939F93AF93BF93EF93FF93E0911020F1
S1130E60F0911120309709F01995FF91EF91BF91FE
S1130E70AF919F918F917F916F915F914F913F912E
S1130E802F910F900BBE0F900FBE0F901F901895CF
S1130E901F920F920FB60F9211240BB60F922F933D
S1130EA03F934F935F936F937F938F939F93AF93EE
S1130EB0BF93EF93FF93E0910E20F0910F203097B2
S1130EC009F01995FF91EF91BF91AF919F918F9187
S1130ED07F916F915F914F913F912F910F900BBE36
S1130EE00F900FBE0F901F9018951F920F920FB680
S1130EF00F9211240BB60F922F933F934F935F934E
S1130F006F937F938F939F93AF93BF93EF93FF93CD
S1130F10E0910C20F0910D20309709F01995FF9184
S1130F20EF91BF91AF919F918F917F916F915F915D
S1130F304F913F912F910F900BBE0F900FBE0F90CA
S1130F401F9018951F920F920FB60F9211240BB693
S1130F500F922F933F934F935F936F937F938F934E
S1130F609F93AF93BF93EF93FF93E0910A20F09187
S1130F700B20309709F01995FF91EF91BF91AF9134
S1130F809F918F917F916F915F914F913F912F919D
S1130F900F900BBE0F900FBE0F901F9018951F92CD
S1130FA00F920FB60F9211240BB60F922F933F930B
S1130FB04F935F936F937F938F939F93AF93BF935D
S1130FC0EF93FF93E0910820F0910920309709F006
S1130FD01995FF91EF91BF91AF919F918F917F915F
S1130FE06F915F914F913F912F910F900BBE0F9096
S1130FF00FBE0F901F901895CF93CFB7F894282F5A
S1131000392F211588E0380739F461E083E07FD572
S113101064E083E07CD543C0203488E0380739F4A9
S113102062E083E074D564E083E071D538C02115B3
S113103089E0380739F461E084E069D564E084E04C
S113104066D52DC0203489E0380739F462E084E0A5
S11310505ED564E084E05BD522C021158AE03807C0
S113106039F461E085E053D564E085E050D517C0DC
S113107020348AE0380739F462E085E048D564E03A
S113108085E045D50CC021153B4039F461E086E08C
S11310903ED564E086E03BD502C0CFBF09C08FB720
S11310A0F894E7E5F0E290819F5F90838FBFCFBF14
S11310B0CF910895FC01818185FFFDCF608380E09D
S11310C090E008954F925F926F927F928F929F92D9
S11310D0AF92BF92CF92DF92EF92FF920F931F9342
S11310E0CF93DF93EC014A015B0128013901D90157
S11310F0C801689412F8B695A795979587951694A4
S1131100D1F7B901A801032E36E176956795579575
S113111047953A95D1F7302D2C8122FD08C0B6951C
S1131120A7959795879576956795579547958815CB
S11311309905AA05BB0508F4A6C084169506A6065B
S1131140B70608F4A2C08C8182FD04C0880C991CE7
S1131150AA1CBB1CC301B201A50194010E94E611A3
S11311602F3F31054105510508F491C0C12CD12C04
S11311707601CA9419EF05C02C153D054E055F058F
S113118068F0CC0CDD1CEE1CFF1C1D3F14F46894AD
S1131190C0F81F5F173081F7212F50C0212F112372
S11311A00CF04CC0D501C401880F991FAA1FBB1FA6
S11311B0880F991FAA1FBB1F880F991FAA1FBB1F47
S11311C0481A590A6A0A7B0A1E3FF4F46DEF7FEF4E
S11311D0611B710917FD739504C0440C551C661CF2
S11311E0771C6A95D2F7D501C401B695A795979552
S11311F08795BC01CD01640D751D861D971DA50144
S113120094010E94E61136C023E0210FD501C401E8
S113121004C0880F991FAA1FBB1F2A95D2F79C01EF
S1131220AD01B695A79597958795BC01CD01640D41
S1131230751D861D971D0E94E6111CC02D5FD501EA
S1131240C40104C0880F991FAA1FBB1F2A95D2F797
S11312509C01AD01B695A79597958795BC01CD01E5
S1131260640D751D861D971D0E94E61121503109DC
S113127041095109832F8F701295107F182B1F83FA
S11312802E8381E018C080E016C080E014C0D50130
S1131290C401880F991FAA1FBB1F880F991FAA1F7B
S11312A0BB1F880F991FAA1FBB1F481A590A6A0A35
S11312B07B0A19EF8BCFDF91CF911F910F91FF9094
S11312C0EF90DF90CF90BF90AF909F908F907F90E2
S11312D06F905F904F9008950F931F93CF93DF9378
S11312E0EC018B01009709F4E6C0803C910521F4E0
S11312F060E180E00CD4DFC0C03881E0D80721F47D
S113130062E080E004D4D7C0C115E1E0DE0721F437
S113131061E080E0FCD3CFC0C038F3E0DF0721F404
S113132061E081E0F4D3C7C0C03983E0D80721F479
S113133061E082E0ECD3BFC0C115E2E0DE0721F436
S113134062E081E0E4D3B7C0C034F2E0DF0721F407
S113135062E082E0DCD3AFC0C03283E0D80721F47E
S113136064E082E0D4D3A7C0C115E8E0DE0721F42D
S113137061E083E0CCD39FC0C115F9E0DF0721F41D
S113138061E084E0C4D397C0C1158AE0D80721F492
S113139061E085E0BCD38FC0C115EBE0DE0721F42A
S11313A061E086E0B4D387C0C034F8E0DF0721F4FD
S11313B062E083E0ACD37FC0C03489E0D80721F475
S11313C062E084E0A4D377C0C034EAE0DE0721F40D
S11313D062E085E09CD36FC0C039F8E0DF0721F4F8
S11313E064E083E094D367C0C03989E0D80721F46E
S11313F064E084E08CD35FC0C039EAE0DE0721F406
S113140064E085E084D357C0C039FBE0DF0721F4F2
S113141064E086E07CD34FC0C03C88E0D80721F468
S113142068E083E074D347C0C03CE9E0DE0721F400
S113143068E084E06CD33FC0C03AF8E0DF0721F4F1
S113144060E183E064D337C0C03A89E0D80721F46F
S113145060E184E05CD32FC0C03AEAE0DE0721F407
S113146060E185E054D327C0C03AFBE0DF0721F4F4
S113147060E186E04CD31FC0C03B88E0D80721F46C
S113148060E283E044D317C0C03BE9E0DE0721F407
S113149060E284E03CD30FC0C038F4E0DF0721F4FD
S11314A060E483E034D307C0C03A84E0D80719F479
S11314B060E485E02CD38D818F738D83F801948152
S11314C08581892B9681992311F098E001C090E0E1
S11314D0892B8D83F801408151816281738100E001
S11314E018E428EE31E0CE01EDDD9C8198609C8308
S11314F09C8190619C83DF91CF911F910F910895FE
S11315004FB7F894282F392F211582E0380729F492
S1131510609354207093552007C02034324021F446
S113152060935220709353204FBF0895811522E099
S1131530920761F48091512091E0980F909351208B
S1131540811112C062E081E0E2C2089580349240C9
S113155059F48091502091E0980F9093502081117C
S113156003C062E082E0D3C20895811522E09207AD
S113157059F480915120815080935120811111C0E0
S113158062E081E0D0C208958034924051F48091A9
S11315905020815080935020811103C062E082E08A
S11315A0C2C208951F93CF93DF93EC011FB7F89441
S11315B0BDDF8881816088831FBF8FB7F894E7E51A
S11315C0F0E290819F5F90838FBFDF91CF911F9155
S11315D008951F920F920FB60F9211240BB60F921B
S11315E02F933F934F935F936F937F938F939F9327
S11315F0AF93BF93EF93FF93E0E0F2E044A155A1D2
S1131600E0915420F091552061E080E092E019953A
S1131610FF91EF91BF91AF919F918F917F916F91C6
S11316205F914F913F912F910F900BBE0F900FBE82
S11316300F901F9018951F920F920FB60F921124BE
S11316400BB60F922F933F934F935F936F937F93B8
S11316508F939F93AF93BF93EF93FF93E8E2F2E0EE
S113166044815581E0915420F091552062E080E05E
S113167092E01995FF91EF91BF91AF919F918F9156
S11316807F916F915F914F913F912F910F900BBE7E
S11316900F900FBE0F901F9018951F920F920FB6C8
S11316A00F9211240BB60F922F933F934F935F9396
S11316B06F937F938F939F93AF93BF93EF93FF9316
S11316C0E0E3F2E044815581E0915420F09155200B
S11316D064E080E092E01995FF91EF91BF91AF91A2
S11316E09F918F917F916F915F914F913F912F9136
S11316F00F900BBE0F900FBE0F901F9018951F9266
S11317000F920FB60F9211240BB60F922F933F93A3
S11317104F935F936F937F938F939F93AF93BF93F5
S1131720EF93FF93E8E3F2E044815581E091542084
S1131730F091552068E080E092E01995FF91EF91D7
S1131740BF91AF919F918F917F916F915F914F91D5
S11317503F912F910F900BBE0F900FBE0F901F90D3
S113176018951F920F920FB60F9211240BB60F9279
S11317702F933F934F935F936F937F938F939F9395
S1131780AF93BF93EF93FF93E0E4F2E044A155A13C
S1131790E0915220F091532061E080E492E01995A9
S11317A0FF91EF91BF91AF919F918F917F916F9135
S11317B05F914F913F912F910F900BBE0F900FBEF1
S11317C00F901F9018951F920F920FB60F9211242D
S11317D00BB60F922F933F934F935F936F937F9327
S11317E08F939F93AF93BF93EF93FF93E8E6F2E059
S11317F044815581E0915220F091532062E080E4CD
S113180092E01995FF91EF91BF91AF919F918F91C4
S11318107F916F915F914F913F912F910F900BBEEC
S11318200F900FBE0F901F9018951F920F920FB636
S11318300F9211240BB60F922F933F934F935F9304
S11318406F937F938F939F93AF93BF93EF93FF9384
S1131850E0E7F2E044815581E0915220F091532079
S113186064E080E492E01995FF91EF91BF91AF910C
S11318709F918F917F916F915F914F913F912F91A4
S11318800F900BBE0F900FBE0F901F9018951F92D4
S11318900F920FB60F9211240BB60F922F933F9312
S11318A04F935F936F937F938F939F93AF93BF9364
S11318B0EF93FF93E8E7F2E044815581E0915220F1
S11318C0F091532068E080E492E01995FF91EF9144
S11318D0BF91AF919F918F917F916F915F914F9144
S11318E03F912F910F900BBE0F900FBE0F901F9042
S11318F01895DF92EF92FF920F931F93CF93DF938C
S1131900EC018B01C11522E0D20771F461E270E0B1
S113191082E014D1E82EF12C60E270E082E00ED176
S1131920FE2CEE24E82A10C08034924059F565E27A
S113193070E082E003D1E82EF12C64E270E082E0F2
S1131940FDD0FE2CEE24E82ADFB6F894CE01EEDDBD
S1131950288182E08883EC86FD86F8018581968162
S1131960888F998F82818A8384818C8383818B83FE
S113197081818983822F81709081892B8883CE0114
S1131980F4DDDFBEDF91CF911F910F91FF90EF90B7
S1131990DF900895FF920F931F93CF93DF93EC0191
S11319A08B01FFB6F894C2DD8881807CF8018083C6
S11319B0888D998D858396838A8182838C818483A3
S11319C08B81838389818183CE01CFDDFFBEDF914B
S11319D0CF911F910F91FF900895CF92DF92EF92D4
S11319E0FF920F931F93CF93DF937C01D62E8A012E
S11319F0862F837029F4962F9695969582E002C0DF
S1131A00962F80E090FF8F5FE701A09698E0899F72
S1131A10C00DD11D1124CFB6F894C70187DDF8019C
S1131A208081888382818A8381818983D0FE02C0F8
S1131A3083818E83C70199DDCFBEDF91CF911F9142
S1131A400F91FF90EF90DF90CF900895CF92DF92A7
S1131A50EF92FF920F931F93CF93DF937C01D62EC7
S1131A60EA01862F837029F4962F9695969582E045
S1131A7002C0962F80E090FF8F5F8701005E1F4FAA
S1131A8098E0899F000D111D1124CFB6F894C70169
S1131A904DDDF8018081888382818A8381818983F5
S1131AA0D0FE02C086818B83C7015FDDCFBEDF918C
S1131AB0CF911F910F91FF90EF90DF90CF900895F9
S1131AC08FEF8093700080937100809372008093F5
S1131AD073008093740080937500809376008FB7B1
S1131AE0F894E0E5F0E09081926090838FBF81816B
S1131AF081FFFDCF61E080E490E02AD08FB7F894B5
S1131B00E0E5F0E090819E7F90838FBF08959FB7BA
S1131B10F894E82FF0E0E059FF4F60958081682346
S1131B2060839FBF08959FB7F894E82FF0E0E059D1
S1131B30FF4F8081682B60839FBF08954091CA0145
S1131B40E62FF72F8093CA0184914093CA01089528
S1131B501BBEFC0128ED24BF60830895613021F48D
S1131B60642F80EA9AE0A6CA0895CF93DF93CDB795
S1131B70DEB72B97CDBFDEBF7894A2DF62E080E0B2
S1131B80C6DF80EC8093800180E098E035DAE0E005
S1131B90F8E08181887F81838081807F8560808374
S1131BA080818F7090E0FC013197E730F10530F5CA
S1131BB0E250FF4F2DC460E078E488EE91E021C04C
S1131BC062E17AE780E090E01CC068E478EE81E0AE
S1131BD090E017C060E271EA87E090E012C060E034
S1131BE079E08DE390E00DC060E072E18AE790E077
S1131BF008C060E074E284EF90E003C060E070E04D
S1131C00CB0120E533EC40E050E0E0D3E0E0F8E045
S1131C1026A337A387E0E0EAF0E0828380910420E2
S1131C208D83809105208E83809106208F838091FF
S1131C30002090910120A0910220B091032089837B
S1131C409A83AB83BC8360E185E061DFBE016F5F93
S1131C507F4F80EA9AE040DB18E0E0E8F6E0118389
S1131C60BE016F5F7F4F80E092E094DEAE01485F7B
S1131C705F4F61E080E092E0E9DE8A819B819F789A
S1131C8090629B83817E84608A8301E00C8384E07C
S1131C908D836EEA7DE080E092E032DC8A858C7F81
S1131CA081608A8708871987BE016F5F7F4F80E054
S1131CB092E01FDEAE01485F5F4F61E080E092E09A
S1131CC08CDE80E092E06EDCFFCF2F923F924F9249
S1131CD05F926F927F928F929F92AF92BF92CF92B8
S1131CE0DF92EF92FF920F931F93CF93DF93CDB7C1
S1131CF0DEB76397CDBFDEBF7C011B016A01FC0127
S1131D0016821782838181FF49C3BE016F5F7F4FB3
S1131D104B01F7019381F10193FD859193FF81912B
S1131D201F01882309F436C3853239F493FD859164
S1131D3093FF81911F01853231F4B70190E05CD4A7
S1131D4056016501E6CF10E0512C20E02032A0F4CA
S1131D508B3269F030F4803259F0833269F42061B7
S1131D602CC08D3239F0803339F4216026C02260D2
S1131D70246023C0286021C027FD27C030ED380F20
S1131D803A3078F426FF06C0FAE01F9F300D112484
S1131D90132F13C06AE0569E300D1124532E206277
S1131DA00CC08E3221F426FDF5C2206406C08C36A8
S1131DB011F4206802C0883641F4F10193FD859145
S1131DC093FF81911F018111C1CF9BEB980F933039
S1131DD018F42061805E06C09BE9980F933008F0E8
S1131DE09AC12F7E26FF16E02F73722E853621F4BA
S1131DF0F22FF0647F2E08C0863621F4622F6068CB
S1131E00762E02C01111115077FE07C01C3348F41E
S1131E1044244394410E27E00BC0183030F4212FA2
S1131E2006C027E04CE3442E03C027E017E0412C12
S1131E30560174E0A70EB11CF601608171818281A4
S1131E409381042DA401EAD26C01098100FF02C030
S1131E5003FF06C071FC07C072FC08C0612C08C0F7
S1131E603DE2632E05C02BE2622E02C090E2692E91
S1131E70802F8C7081F1662011F084E001C083E032
S1131E80851510F0512C0AC0581A73FC07C0B7010D
S1131E9080E290E0B1D35A94D1F7F4CF662021F0D8
S1131EA0B701862D90E0A8D303FD03C00EE012E035
S1131EB002C00AE012E0F72DF0717F2EF801849140
S1131EC0882309F45EC271108052B70190E094D364
S1131ED00F5F1F4FF3CF77FE0FC04C0C04FF04C0FD
S1131EE08A81813309F44A94141474F5F8E0F415E2
S1131EF078F588E0482E2CC076FC2AC0812F90E02B
S1131F008C159D059CF06CEFC6166FEFD60674F029
S1131F10772D7068772E0AC0E2E0F0E0EC0FFD1F29
S1131F20E10FF11D8081803319F411501111F4CFA8
S1131F3077FE0EC044244394410E812F90E0C816CE
S1131F40D9062CF41C1904C04424439401C010E0A5
S1131F5077FE07C01C141D043CF496012F5F3F4F0D
S1131F6005C025E030E002C021E030E0662011F039
S1131F702F5F3F4F112331F0412F50E04F5F5F4FF0
S1131F80240F351F452D50E02417350714F4521A39
S1131F9001C0512C872D897041F4552031F0B701CF
S1131FA080E290E029D35A94F8CF662021F0B7015B
S1131FB0862D90E021D373FC08C0552031F0B70181
S1131FC080E390E019D35A94F8CF77FE5DC09C2D3E
S1131FD08D2DD7FE02C090E080E0692E782E40E07F
S1131FE050E0C601841991098C879D8796012619B2
S1131FF03709280D391D812F90E0EE27FF27E81BB4
S1132000F90BEE87FF87FFEF6F167F0661F4B701C8
S11320108EE290E02B8B3A8B488B598BEDD2598909
S113202048893A892B89C614D70454F06C857D8578
S1132030661577052CF4F901E40FF51F818101C0C1
S113204080E371E0671A71084F5F5F4FEE85FF858B
S11320506E167F0664F0B70190E02B8B3A8B488BA9
S1132060598BCAD22B893A8948895989CCCF6C14A7
S11320707D0439F49A81963318F4953311F404FFEE
S113208081E3B70190E045C08A81813309F00F7E76
S1132090B70190E0B1D2111105C074FE16C085E4F9
S11320A090E015C0B7018EE290E0A6D282E06624EB
S11320B06394680EF401E80FF11D8081B70190E08C
S11320C09BD2115051F3862DF2CF85E690E0B701F3
S11320D093D2D7FC05C0C114D10439F404FF05C060
S11320E0D194C194D1088DE201C08BE2B70190E094
S11320F083D280E36AE0C616D1042CF08F5FFAE045
S1132100CF1AD108F7CFB70190E076D2B701C60154
S1132110C09672D236C1833631F0833779F0833575
S113212009F054C020C0560172E0A70EB11CF6019C
S11321308081898301E010E0640113C05601F2E05C
S1132140AF0EB11CF601C080D18026FF03C0612F01
S113215070E002C06FEF7FEFC6012B8B42D28C017F
S11321602B892F7714C05601F2E0AF0EB11CF60193
S1132170C080D18026FF03C0612F70E002C06FEFE2
S11321807FEFC6012B8B22D28C012B892068722E03
S113219023FD18C0852D90E00817190798F4B7019E
S11321A080E290E029D25A94F5CFF60177FC85912C
S11321B077FE81916F01B70190E01ED251105A94BD
S11321C0015011090115110581F7DBC0843611F0A6
S11321D0893649F5560127FF09C0F4E0AF0EB11C5A
S11321E0F60160817181828193810AC0F2E0AF0EB1
S11321F0B11CF60160817181882777FD8095982F45
S1132200022F0F7697FF08C0909580957095619581
S11322107F4F8F4F9F4F00682AE030E0A4011ED209
S1132220C82EC8183DC0022F853721F40F7E2AE03E
S113223030E01DC0097F8F3691F018F4883559F0CD
S1132240A9C0803719F0883711F0A4C0006104FFD9
S113225009C0046007C024FF08C0066006C028E067
S113226030E005C020E130E002C020E132E0560158
S113227007FF09C0F4E0AF0EB11CF6016081718163
S11322808281938108C0F2E0AF0EB11CF601608137
S1132290718180E090E0A401E1D1C82EC8180F77C5
S11322A006FF0BC0202F2E7FC11650F404FF0AC076
S11322B002FD08C0202F2E7E05C0DC2C202F03C079
S11322C0DC2C01C0D12E24FF0DC0FE01EC0DF11D4C
S11322D08081803311F4297E09C022FF06C0D39483
S11322E0D39404C0822F867809F0D39423FD12C0BE
S11322F020FF06C01C2DD51418F4150D1D19D52C5E
S1132300D51460F4B70180E290E02B8B75D1D3949F
S11323102B89F6CFD51410F45D1801C0512C24FF7D
S113232011C0B70180E390E02B8B66D12B8922FF8B
S113233016C021FF03C088E590E002C088E790E062
S1132340B7010CC0822F867851F021FD02C080E2D3
S113235001C08BE227FD8DE2B70190E04DD1C1169B
S113236030F4B70180E390E047D11150F8CFCA941C
S1132370F401EC0DF11D8081B70190E03DD1C11055
S1132380F6CF552009F4DDCCB70180E290E034D1DA
S11323905A94F7CFF7018681978102C08FEF9FEFA0
S11323A06396CDBFDEBFDF91CF911F910F91FF9058
S11323B0EF90DF90CF90BF90AF909F908F907F90E1
S11323C06F905F904F903F902F900895A1E21A2E46
S11323D0AA1BBB1BFD010DC0AA1FBB1FEE1FFF1FC5
S11323E0A217B307E407F50720F0A21BB30BE40B15
S11323F0F50B661F771F881F991F1A9469F760955C
S11324007095809590959B01AC01BD01CF01089515
S1132410EE0FFF1F0590F491E02D1994283008F079
S113242027E03327DA01990F311D87FD916000966B
S11324306105710539F432602E5F3D9330E32A95CE
S1132440E1F708959F3F30F080387105610509F088
S11324503C5F3C5F3D93913008F08068911DDF93B1
S1132460CF931F930F93FF92EF92192F987F969516
S1132470E92F96959695E90FFF27E459FD4F992783
S11324803327EE24FF24A701E7010590089407945D
S113249028F4360FE71EF81E491F511D660F771FDB
S11324A0881F991F0694A1F70590079428F4E70E56
S11324B0F81E491F561FC11D770F881F991F661FDD
S11324C00694A1F70590079428F4F80E491F561FA7
S11324D0C71FD11D880F991F661F771F0694A1F788
S11324E00590079420F4490F561FC71FD81F990F52
S11324F0661F771F881F0694A9F78491109517709B
S113250041F0D695C79557954795F794E7941A9552
S1132510C1F7E2E1F2E06894159015913591659167
S1132520959105907FE27395E118F10A430B560BE0
S1132530C90BD009C0F7E10CF11E431F561FC91F78
S1132540D01D7EF4703311F48A95E6CFE8940150DF
S113255030F0080F0AF40027021708F4202F2395FF
S1132560022F7A3328F079E37D932A95E9F710C096
S11325707D932A9589F606949795679537951795CF
S11325801794E118F10A430B560BC90BD00998F0C4
S113259023957E9173957A3308F070E37C9320132E
S11325A0B8F77E9170617D9330F0839571E37D93EC
S11325B070E32A95E1F71124EF90FF900F911F919A
S11325C0CF91DF91992787FD90950895FC0105909F
S11325D0615070400110D8F7809590958E0F9F1F21
S11325E00895FC016150704001900110D8F7809566
S11325F090958E0F9F1F08950F931F93CF93DF9392
S1132600182F092FEB018B8181FD03C08FEF9FEF02
S113261020C082FF10C04E815F812C813D81421712
S113262053077CF4E881F9819F012F5F3F4F288392
S11326303983108306C0E885F985812F1995892B84
S113264029F72E813F812F5F3F4F2E833F83812FB8
S1132650902FDF91CF911F910F910895FA01AA272E
S1132660283051F1203181F1E8946F936E7F6E5FD1
S11326707F4F8F4F9F4FAF4FB1E03ED0B4E03CD07F
S1132680670F781F891F9A1FA11D680F791F8A1F62
S1132690911DA11D6A0F711D811D911DA11D20D0C9
S11326A009F468943F912AE0269F11243019305D83
S11326B03193DEF6CF010895462F4770405D419374
S11326C0B3E00FD0C9F7F6CF462F4F70405D4A33C1
S11326D018F0495D31FD4052419302D0A9F7EACF89
S11326E0B4E0A6959795879577956795BA95C9F7B8
S11326F000976105710508959B01AC010A2E0694AB
S11327005795479537952795BA95C9F7620F731F63
S10F2710841F951FA01D0895F894FFCFAE
S10B271C00100E000300000090
S9030000FC
