S00A000052462E7372656382
S11300000C94FE000C9410010C9412010C94100139
S11300100C9410010C9410010C9410010C94100118
S11300200C9410010C9410010C9410010C94100108
S11300300C9410010C9410010C9410010C941001F8
S11300400C9410010C9410010C9410010C941001E8
S11300500C9410010C9410010C9410010C941001D8
S11300600C9410010C9410010C9410010C941001C8
S11300700C9410010C9410010C9410010C941001B8
S11300800C9410010C9410010C9410010C941001A8
S11300900C9410010C9410010C9410010C94100198
S11300A00C9410010C9410010C9410010C94100188
S11300B00C9410010C9410010C944A010C9410013E
S11300C00C9410010C9410010C9410010C94100168
S11300D00C9410010C9410010C9410010C94100158
S11300E00C9410010C9410010C9410010C94100148
S11300F00C9410010C9410010C9410010C94100138
S11301000C9410010C9410010C9410010C94100127
S11301100C9410010C9410010C9410010C94100117
S11301200C9410010C9410010C9410010C94100107
S11301300C9410010C9410010C9410010C941001F7
S11301400C9410010C9410010C9410010C941001E7
S11301500C9410010C9410010C9410010C941001D7
S11301600C9410010C9410010C9410010C941001C7
S11301700C9410010C9410010C9410010C941001B7
S11301800C9410010C9410010C9410010C941001A7
S11301900C9410010C9410010C9410010C94100197
S11301A00C9410010C9410010C9410010C94100187
S11301B00C9410010C9410010C9410010C94100177
S11301C00C9410010C9410010C9410010C94100167
S11301D00C9410010C9410010C9410010C94100157
S11301E00C9410010C9410010C9410010C94100147
S11301F00C9410010C9410010C94100111241FBED6
S1130200CFEFCDBFDFE2DEBF20E2A0E0B0E201C06D
S11302101D92AA31B207E1F70E9436010C94020242
S11302200C9400001F920F920FB60F9211242F937B
S11302303F934F935F936F937F938F939F93AF936A
S1130240BF93EF93FF930E947401FF91EF91BF91CD
S1130250AF919F918F917F916F915F914F913F915A
S11302602F910F900FBE0F901F9018950E94700150
S1130270E0E4F6E088E082838AE1838B828588600B
S1130280828781E08187E0EAF0E082818160828375
S11302907894FFCF1F920F920FB60F9211242F93D1
S11302A03F934F935F936F937F938F939F93AF93FA
S11302B0BF93EF93FF9380E090E20E94E901FF91E6
S11302C0EF91BF91AF919F918F917F916F915F91CA
S11302D04F913F912F910F900FBE0F901F90189543
S11302E080E180936106089580E180936706089514
S11302F0FC01A081B18114969C91149792FF03C0D4
S113030084E0808F02C083E0808F986014969C9371
S1130310178A0895CF93DF93FC0193892489A081E0
S1130320B18114968C91149784FF07C083E01396CF
S11303308C9385E0808F178A1CC08589891758F4AF
S11303408589EF01C80FD11D8B8117968C93858900
S11303508F5F858B0EC08689821728F48281816025
S113036016968C9306C083E013968C9381E0808F5D
S1130370178ADF91CF910895FC018689883070F443
S1130380A081B18117968C919689DF01A90FB11DC7
S11303901B968C9386898F5F868B08C0A081B18160
S11303A083E013968C9382E0808F178A94898689E0
S11303B0891730F40190F081E02D82E08383089561
S11303C0A081B18187E013968C9381E0808F178A96
S11303D00895DC01ED91FC912481322F3C7019F0D9
S11303E00E947801089526FF03C00E948A0108959F
S11303F022231CF40E94BC01089526E0FC01208FF6
S10B0400178A0895F894FFCF58
S9030000FC
