S00A000052462E7372656382
S11300000C94FE000C9410010C9410010C9410013B
S11300100C9410010C9410010C9410010C94100118
S11300200C9410010C9410010C9412010C94100106
S11300300C9410010C9410010C9410010C941001F8
S11300400C9410010C9410010C9410010C941001E8
S11300500C9410010C9410010C9410010C941001D8
S11300600C9410010C9410010C9410010C941001C8
S11300700C9410010C9410010C9410010C941001B8
S11300800C9410010C9410010C9410010C941001A8
S11300900C9410010C9410010C9410010C94100198
S11300A00C9410010C9410010C9410010C94100188
S11300B00C9410010C9410010C94C0010C941001C8
S11300C00C9410010C9410010C9410010C94100168
S11300D00C9410010C9410010C9410010C94100158
S11300E00C9410010C9410010C9410010C94100148
S11300F00C9410010C9410010C9410010C94100138
S11301000C9410010C9410010C9410010C94100127
S11301100C9410010C9410010C9410010C94100117
S11301200C9410010C9410010C9410010C94100107
S11301300C9410010C9410010C9410010C941001F7
S11301400C9410010C9410010C9410010C941001E7
S11301500C9410010C9410010C9410010C941001D7
S11301600C9410010C9410010C9410010C941001C7
S11301700C9410010C9410010C9410010C941001B7
S11301800C9410010C9410010C9410010C941001A7
S11301900C9410010C9410010C9410010C94100197
S11301A00C9410010C9410010C9410010C94100187
S11301B00C9410010C9410010C9410010C94100177
S11301C00C9410010C9410010C9410010C94100167
S11301D00C9410010C9410010C9410010C94100157
S11301E00C9410010C9410010C9410010C94100147
S11301F00C9410010C9410010C94100111241FBED6
S1130200CFEFCDBFDFE2DEBF20E2A0E0B0E201C06D
S11302101D92A232B207E1F70E9438010C946904DE
S11302200C9400001F920F920FB60F9211242F937B
S11302303F934F935F936F937F938F939F93AF936A
S1130240BF93EF93FF930E94AF010E943103FF918C
S1130250EF91BF91AF919F918F917F916F915F913A
S11302604F913F912F910F900FBE0F901F901895B3
S11302700E940D030E949401E0E0F4E08AE090E023
S1130280828793871086118681E08083828380939E
S11302904300E0EAF0E08281816082837894E8E4BC
S11302A0F0E08081817F86608083808181608083AB
S11302B08895FECF0F93CF93DF93EB0180931A20A1
S11302C001E021E04AE150E269E181E090E20E942C
S11302D09B03E1E0F0E287898111FDCF80910C203E
S11302E0888381E0DF91CF910F9108950F93CF938D
S11302F0DF9300D0CDB7DEB789836A8300E022E0C4
S1130300AE014F5F5F4F69E181E090E20E949B0381
S1130310E1E0F0E287898111FDCF81E00F900F9039
S1130320DF91CF910F91089520E040EC60EA74E0F2
S113033081E090E20E948A03E0EAF0E08281846036
S11303408283789487E00E94E60182E00E940C0296
S113035080E00E94850287E00E9462020895CF93A4
S1130360DF931F92CDB7DEB7BE016F5F7F4F8DE283
S11303700E945A01898180580F90DF91CF9108958E
S11303801F920F920FB60F9211242F933F934F9306
S11303905F936F937F938F939F93AF93BF93EF93E9
S11303A0FF9381E090E20E945004FF91EF91BF918E
S11303B0AF919F918F917F916F915F914F913F91F9
S11303C02F910F900FBE0F901F9018951F93CF93EE
S11303D0DF931F92CDB7DEB7182FBE016F5F7F4F3B
S11303E080E20E945A01882381F069816F7020E1C4
S11303F0129FC0011124682B698380E20E94760158
S113040091E0811103C090E001C090E0892F0F902A
S1130410DF91CF911F9108951F93CF93DF9300D065
S1130420CDB7DEB7182FBE016F5F7F4F80E20E9409
S11304305A018823C9F1BE016E5F7F4F83E20E9497
S11304405A01882399F18981982F907F29F49091FA
S11304500020907F892B8983113089F018F01230A5
S113046039F026C08981809300208F7089830DC064
S11304708981877F89838A8188608A8306C089818C
S1130480886089838A81877F8A83698180E20E9468
S11304907601882379F06A8183E20E94760191E0F3
S11304A0811109C090E007C090E005C090E003C04E
S11304B090E001C090E0892F0F900F90DF91CF91D1
S11304C01F9108951F93CF93DF931F92CDB7DEB78B
S11304D0182FBE016F5F7F4F80E20E945A0188236C
S11304E069F06981687F1770612B698380E20E94DB
S11304F0760191E0811103C090E001C090E0892F62
S11305000F90DF91CF911F9108951F93CF93DF93A5
S11305101F92CDB7DEB7182FBE016F5F7F4F83E206
S11305200E945A01882381F069816F7C20E1129F27
S1130530C0011124682B698383E20E94760191E053
S1130540811103C090E001C090E0892F0F90DF91EA
S1130550CF911F910895AF92CF92EF920F93E0E461
S1130560F6E082E1818382E08583A12CC12CE12C19
S113057000E020E040E456E060EC78E08BE190E2BB
S11305800E9451030F91EF90CF90AF9008950F9375
S11305901F93CF93DF93062FC0E4D6E012E01E83AF
S11305A0682F60628BE190E20E947E03602F8BE1F2
S11305B090E20E947E031D83DF91CF911F910F91E2
S11305C00895EF92FF920F931F93CF93DF937C01D3
S11305D0162F82E08093460660EA8BE190E20E9447
S11305E07E03112381F0E7011150012F10E00F5F0A
S11305F01F4F0E0D1F1D69918BE190E20E947E0337
S1130600C017D107C1F782E080934506DF91CF91EF
S11306101F910F91FF90EF9008958BE795E101975B
S1130620F1F700C000000E94AB02E0E4F6E081E0D4
S1130630818386836AE280E00E94C70260E081E0F1
S11306400E94C70268E086E00E94C70263E185E079
S11306500E94C70287EE93E00197F1F700C0000003
S11306600895FF920F931F93CF93DF931F92CDB7FB
S1130670DEB7898300E416E0FF24F394F801F582E1
S1130680FAE0FA95F1F761E0CE0101960E94E102E9
S1130690F801F6820F90DF91CF911F910F91FF9097
S11306A00895AF92CF92EF920F93FC016083718310
S11306B0428353831482C11002C080E001C080E8E9
S11306C09A2D9064A92EA82A211102C080E001C0AD
S11306D080E2A82A00610A29DB010C93A081B18180
S11306E01196EC92158216820280F381E02D80EA45
S11306F081830F91EF90CF90AF900895DC01ED913D
S1130700FC9111976383ED91FC9182818823ECF72E
S113071083810895FC01608371834863DB01119632
S11307204C93A081B18115962C930190F081E02D1A
S113073081E0848308950F93CF93DF93FC012930E4
S113074098F5093098F58789811132C081E0878B4B
S1130750108E660F6283222369F0A42FB52F40E028
S113076050E08D91EF01C40FD51F8B834F5F5F4F16
S11307704217B8F3238B048B158A168A838988233E
S113078041F082818E7F0190F081E02D868381E0AB
S113079012C08489882371F0828181600190F08184
S11307A0E02D868381E007C080E005C080E003C0BF
S11307B080E001C081E0DF91CF910F910895FC01A9
S11307C0A081B18114969C91149792FF03C084E098
S11307D0808F02C083E0808F986014969C93178A60
S11307E00895CF93DF93FC0193892489A081B1817B
S11307F014968C91149784FF07C083E013968C930E
S113080085E0808F178A1CC08589891758F48589EB
S1130810EF01C80FD11D8B8117968C9385898F5F4B
S1130820858B0EC08689821728F482818160169692
S11308308C9306C083E013968C9381E0808F178A93
S1130840DF91CF910895FC018689883070F4A081EE
S1130850B18117968C919689DF01A90FB11D1B9662
S11308608C9386898F5F868B08C0A081B18183E0D9
S113087013968C9382E0808F178A948986898917CE
S113088030F40190F081E02D82E083830895A0810B
S1130890B18187E013968C9381E0808F178A089545
S11308A0DC01ED91FC912481322F3C7019F00E94FF
S11308B0DF03089526FF03C00E94F1030895222355
S11308C01CF40E942304089526E0FC01208F178A5B
S10908D00895F894FFCF27
S9030000FC
