S01100004144435F4F6E444D412E737265635D
S11300007EC100009DC100009BC1000099C1000099
S113001097C1000095C1000009C200002FC2000072
S113002055C200007BC200008BC1000089C10000E2
S113003087C1000085C10000D2C20000FDC20000DB
S113004028C3000053C300007EC30000A9C30000FE
S1130050D4C30000FFC300002AC4000055C400003C
S11300606FC100006DC100006BC1000069C10000D8
S113007067C1000065C1000063C1000061C10000E8
S11300805FC100005DC100005BC1000059C10000F8
S113009057C1000055C1000053C100000C94A50CC9
S11300A00C94D70C0C94090D0C943B0D49C1000021
S11300B047C1000045C1000043C1000014C6000050
S11300C03FC600006AC6000095C60000C0C6000016
S11300D0EBC6000016C7000041C700006CC7000053
S11300E097C700002DC100002BC1000029C10000EA
S11300F027C1000025C1000023C1000021C1000068
S11301001FC100001DC100001BC1000019C1000077
S113011017C1000015C1000013C100000C94DD0BD1
S11301200C940F0C0C94410C0C94730C09C100003A
S113013007C1000016C4000041C400006CC40000E4
S113014097C40000C2C40000EDC4000018C500003C
S113015043C500006EC5000099C50000F1C0000051
S1130160EFC00000EDC00000EBC00000E9C00000DB
S1130170E7C00000E5C00000E3C00000E1C00000EB
S1130180DFC00000DDC00000DBC00000D9C00000FB
S1130190D7C00000D5C00000D3C00000D1C000000B
S11301A0CFC00000CDC00000CBC00000C9C000001B
S11301B05CC7000087C70000B2C70000DDC70000AD
S11301C00C94E9080C941609BBC00000B9C00000E7
S11301D0B7C00000B5C00000B3C00000B1C000004B
S11301E0AFC00000ADC00000ABC00000A9C000005B
S11301F0A7C00000A5C00000A3C000006E616E008F
S1130200696E660000407A10F35A00A0724E180915
S11302100010A5D4E80000E87648170000E40B5469
S1130220020000CA9A3B000000E1F5050000809638
S11302309800000040420F000000A086010000006A
S1130240102700000000E803000000006400000024
S113025000000A00000000000100000000002C76ED
S1130260D888DC674F0823DFC1DFAE59E1B1B79608
S1130270E5E3E453C63AE651997696E8E6C2842665
S1130280EB898C9B62ED407C6FFCEFBC9C9F40F241
S1130290BAA56FA5F490055A2AF75C936B6CF967BD
S11302A06DC11BFCE0E40D47FEF520E6B500D0ED82
S11302B0902E0300943577050080841E08000020EA
S11302C04E0A000000C80C333333330F986E128388
S11302D01141EF8D2114893BE65516CFFEE6DB185C
S11302E0D1844B381BF77C1D901DA4BBE424203221
S11302F084725E228100C9F124ECA1E53D2711241A
S11303001FBECFEFCDBFDFE5DEBF00E00CBF10E2C4
S1130310A0E0B0E2E0E1F9E200E00BBF02C0079028
S11303200D92A830B107D9F727E4A8E0B0E201C0E4
S11303301D92A437B207E1F70E94A20E0C94861412
S11303405FCECF93DF93282F30E0F9017196E295C9
S1130350F295F07FFE27E07FFE27A0E0B1E014963F
S11303609C9114971396AC91A9014C5F5F4F61E087
S113037070E0EB01042E02C0CC0FDD1F0A94E2F7FB
S1130380082E02C0660F771F0A94E2F76C2BA6238F
S1130390B0E0ED01042E02C0D595C7950A94E2F7AA
S11303A0C0FD1BC0082E02C0B595A7950A94E2F7BC
S11303B0A0FD15C0692370E0DB0102C0B595A795C7
S11303C04A95E2F7A0FD0DC0AB0102C055954795D3
S11303D08A95E2F7CA01817005C084E003C083E016
S11303E001C082E0918190639183F901EE0FFF1FB8
S11303F0EE5AFF4D0190F081E02D309709F01995E8
S1130400DF91CF91089561E080E00E947B0E8FB769
S1130410F894EFE5F0E290819F5F90838FBFE0E076
S1130420F1E080E4808380E8808308951F920F9236
S11304300FB60F9211240BB60F922F933F934F9345
S11304405F936F937F938F939F93AF93BF93EF9338
S1130450FF9380E076DFFF91EF91BF91AF919F9181
S11304608F917F916F915F914F913F912F910F9059
S11304700BBE0F900FBE0F901F9018951F920F92F6
S11304800FB60F9211240BB60F922F933F934F93F5
S11304905F936F937F938F939F93AF93BF93EF93E8
S11304A0FF9381E04EDFFF91EF91BF91AF919F9158
S11304B08F917F916F915F914F913F912F910F9009
S11304C00BBE0F900FBE0F901F9018951F920F92A6
S11304D00FB60F9211240BB60F922F933F934F93A5
S11304E05F936F937F938F939F93AF93BF93EF9398
S11304F0FF9382E026DFFF91EF91BF91AF919F912F
S11305008F917F916F915F914F913F912F910F90B8
S11305100BBE0F900FBE0F901F9018951F920F9255
S11305200FB60F9211240BB60F922F933F934F9354
S11305305F936F937F938F939F93AF93BF93EF9347
S1130540FF9383E0FEDEFF91EF91BF91AF919F9106
S11305508F917F916F915F914F913F912F910F9068
S11305600BBE0F900FBE0F901F901895DB01E82F64
S1130570F0E07196E295F295F07FFE27E07FFE278A
S11305802FB7F89419968C91199784871A968C91A1
S11305901A978587168617968C91179780871896D1
S11305A08C9118978187128612968C911297828368
S11305B013968C911397838314968D919C91159720
S11305C08483958316968C911697868311968C91C5
S11305D0119781838C918F7780832FBF08951F9209
S11305E00F920FB60F9211240BB60F922F933F93D5
S11305F04F935F936F937F938F939F93AF93BF9327
S1130600EF93FF93E0914E20F0914F20309709F043
S11306101995FF91EF91BF91AF919F918F917F9128
S11306206F915F914F913F912F910F900BBE0F905F
S11306300FBE0F901F9018951F920F920FB60F9236
S113064011240BB60F922F933F934F935F936F93A5
S11306507F938F939F93AF93BF93EF93FF93E09117
S11306604C20F0914D20309709F01995FF91EF91AE
S1130670BF91AF919F918F917F916F915F914F91B6
S11306803F912F910F900BBE0F900FBE0F901F90B4
S113069018951F920F920FB60F9211240BB60F925A
S11306A02F933F934F935F936F937F938F939F9376
S11306B0AF93BF93EF93FF93E0914A20F0914B20C7
S11306C0309709F01995FF91EF91BF91AF919F91E8
S11306D08F917F916F915F914F913F912F910F90E7
S11306E00BBE0F900FBE0F901F9018951F920F9284
S11306F00FB60F9211240BB60F922F933F934F9383
S11307005F936F937F938F939F93AF93BF93EF9375
S1130710FF93E0914820F0914920309709F0199512
S1130720FF91EF91BF91AF919F918F917F916F91C5
S11307305F914F913F912F910F900BBE0F900FBE81
S11307400F901F9018951F920F920FB60F921124BD
S11307500BB60F922F933F934F935F936F937F93B7
S11307608F939F93AF93BF93EF93FF93E0914620B2
S1130770F0914720309709F01995FF91EF91BF91BF
S1130780AF919F918F917F916F915F914F913F9125
S11307902F910F900BBE0F900FBE0F901F901895C6
S11307A01F920F920FB60F9211240BB60F922F9334
S11307B03F934F935F936F937F938F939F93AF93E5
S11307C0BF93EF93FF93E0914420F091452030973D
S11307D009F01995FF91EF91BF91AF919F918F917E
S11307E07F916F915F914F913F912F910F900BBE2D
S11307F00F900FBE0F901F9018951F920F920FB677
S11308000F9211240BB60F922F933F934F935F9344
S11308106F937F938F939F93AF93BF93EF93FF93C4
S1130820E0914220F0914320309709F01995FF910F
S1130830EF91BF91AF919F918F917F916F915F9154
S11308404F913F912F910F900BBE0F900FBE0F90C1
S11308501F9018951F920F920FB60F9211240BB68A
S11308600F922F933F934F935F936F937F938F9345
S11308709F93AF93BF93EF93FF93E0914020F09148
S11308804120309709F01995FF91EF91BF91AF91F5
S11308909F918F917F916F915F914F913F912F9194
S11308A00F900BBE0F900FBE0F901F9018951F92C4
S11308B00F920FB60F9211240BB60F922F933F9302
S11308C04F935F936F937F938F939F93AF93BF9354
S11308D0EF93FF93E0913E20F0913F20309709F091
S11308E01995FF91EF91BF91AF919F918F917F9156
S11308F06F915F914F913F912F910F900BBE0F908D
S11309000FBE0F901F9018951F920F920FB60F9263
S113091011240BB60F922F933F934F935F936F93D2
S11309207F938F939F93AF93BF93EF93FF93E09144
S11309303C20F0913D20309709F01995FF91EF91FB
S1130940BF91AF919F918F917F916F915F914F91E3
S11309503F912F910F900BBE0F900FBE0F901F90E1
S113096018951F920F920FB60F9211240BB60F9287
S11309702F933F934F935F936F937F938F939F93A3
S1130980AF93BF93EF93FF93E0913A20F0913B2014
S1130990309709F01995FF91EF91BF91AF919F9115
S11309A08F917F916F915F914F913F912F910F9014
S11309B00BBE0F900FBE0F901F9018951F920F92B1
S11309C00FB60F9211240BB60F922F933F934F93B0
S11309D05F936F937F938F939F93AF93BF93EF93A3
S11309E0FF93E0913820F0913920309709F0199560
S11309F0FF91EF91BF91AF919F918F917F916F91F3
S1130A005F914F913F912F910F900BBE0F900FBEAE
S1130A100F901F9018951F920F920FB60F921124EA
S1130A200BB60F922F933F934F935F936F937F93E4
S1130A308F939F93AF93BF93EF93FF93E0913620EF
S1130A40F0913720309709F01995FF91EF91BF91FC
S1130A50AF919F918F917F916F915F914F913F9152
S1130A602F910F900BBE0F900FBE0F901F901895F3
S1130A701F920F920FB60F9211240BB60F922F9361
S1130A803F934F935F936F937F938F939F93AF9312
S1130A90BF93EF93FF93E0913420F091352030978A
S1130AA009F01995FF91EF91BF91AF919F918F91AB
S1130AB07F916F915F914F913F912F910F900BBE5A
S1130AC00F900FBE0F901F9018951F920F920FB6A4
S1130AD00F9211240BB60F922F933F934F935F9372
S1130AE06F937F938F939F93AF93BF93EF93FF93F2
S1130AF0E0913220F0913320309709F01995FF915D
S1130B00EF91BF91AF919F918F917F916F915F9181
S1130B104F913F912F910F900BBE0F900FBE0F90EE
S1130B201F9018951F920F920FB60F9211240BB6B7
S1130B300F922F933F934F935F936F937F938F9372
S1130B409F93AF93BF93EF93FF93E0913020F09185
S1130B503120309709F01995FF91EF91BF91AF9132
S1130B609F918F917F916F915F914F913F912F91C1
S1130B700F900BBE0F900FBE0F901F9018951F92F1
S1130B800F920FB60F9211240BB60F922F933F932F
S1130B904F935F936F937F938F939F93AF93BF9381
S1130BA0EF93FF93E0912E20F0912F20309709F0DE
S1130BB01995FF91EF91BF91AF919F918F917F9183
S1130BC06F915F914F913F912F910F900BBE0F90BA
S1130BD00FBE0F901F9018951F920F920FB60F9291
S1130BE011240BB60F922F933F934F935F936F9300
S1130BF07F938F939F93AF93BF93EF93FF93E09172
S1130C002C20F0912D20309709F01995FF91EF9148
S1130C10BF91AF919F918F917F916F915F914F9110
S1130C203F912F910F900BBE0F900FBE0F901F900E
S1130C3018951F920F920FB60F9211240BB60F92B4
S1130C402F933F934F935F936F937F938F939F93D0
S1130C50AF93BF93EF93FF93E0912A20F0912B2061
S1130C60309709F01995FF91EF91BF91AF919F9142
S1130C708F917F916F915F914F913F912F910F9041
S1130C800BBE0F900FBE0F901F9018951F920F92DE
S1130C900FB60F9211240BB60F922F933F934F93DD
S1130CA05F936F937F938F939F93AF93BF93EF93D0
S1130CB0FF93E0912820F0912920309709F01995AD
S1130CC0FF91EF91BF91AF919F918F917F916F9120
S1130CD05F914F913F912F910F900BBE0F900FBEDC
S1130CE00F901F9018951F920F920FB60F92112418
S1130CF00BB60F922F933F934F935F936F937F9312
S1130D008F939F93AF93BF93EF93FF93E09126202C
S1130D10F0912720309709F01995FF91EF91BF9139
S1130D20AF919F918F917F916F915F914F913F917F
S1130D302F910F900BBE0F900FBE0F901F90189520
S1130D401F920F920FB60F9211240BB60F922F938E
S1130D503F934F935F936F937F938F939F93AF933F
S1130D60BF93EF93FF93E0912420F09125203097D7
S1130D7009F01995FF91EF91BF91AF919F918F91D8
S1130D807F916F915F914F913F912F910F900BBE87
S1130D900F900FBE0F901F9018951F920F920FB6D1
S1130DA00F9211240BB60F922F933F934F935F939F
S1130DB06F937F938F939F93AF93BF93EF93FF931F
S1130DC0E0912220F0912320309709F01995FF91AA
S1130DD0EF91BF91AF919F918F917F916F915F91AF
S1130DE04F913F912F910F900BBE0F900FBE0F901C
S1130DF01F9018951F920F920FB60F9211240BB6E5
S1130E000F922F933F934F935F936F937F938F939F
S1130E109F93AF93BF93EF93FF93E0912020F091C2
S1130E202120309709F01995FF91EF91BF91AF916F
S1130E309F918F917F916F915F914F913F912F91EE
S1130E400F900BBE0F900FBE0F901F9018951F921E
S1130E500F920FB60F9211240BB60F922F933F935C
S1130E604F935F936F937F938F939F93AF93BF93AE
S1130E70EF93FF93E0911E20F0911F20309709F02B
S1130E801995FF91EF91BF91AF919F918F917F91B0
S1130E906F915F914F913F912F910F900BBE0F90E7
S1130EA00FBE0F901F9018951F920F920FB60F92BE
S1130EB011240BB60F922F933F934F935F936F932D
S1130EC07F938F939F93AF93BF93EF93FF93E0919F
S1130ED01C20F0911D20309709F01995FF91EF9196
S1130EE0BF91AF919F918F917F916F915F914F913E
S1130EF03F912F910F900BBE0F900FBE0F901F903C
S1130F0018951F920F920FB60F9211240BB60F92E1
S1130F102F933F934F935F936F937F938F939F93FD
S1130F20AF93BF93EF93FF93E0911A20F0911B20AE
S1130F30309709F01995FF91EF91BF91AF919F916F
S1130F408F917F916F915F914F913F912F910F906E
S1130F500BBE0F900FBE0F901F9018951F920F920B
S1130F600FB60F9211240BB60F922F933F934F930A
S1130F705F936F937F938F939F93AF93BF93EF93FD
S1130F80FF93E0911820F0911920309709F01995FA
S1130F90FF91EF91BF91AF919F918F917F916F914D
S1130FA05F914F913F912F910F900BBE0F900FBE09
S1130FB00F901F9018951F920F920FB60F92112445
S1130FC00BB60F922F933F934F935F936F937F933F
S1130FD08F939F93AF93BF93EF93FF93E09116206A
S1130FE0F0911720309709F01995FF91EF91BF9177
S1130FF0AF919F918F917F916F915F914F913F91AD
S11310002F910F900BBE0F900FBE0F901F9018954D
S11310101F920F920FB60F9211240BB60F922F93BB
S11310203F934F935F936F937F938F939F93AF936C
S1131030BF93EF93FF93E0911420F0911520309724
S113104009F01995FF91EF91BF91AF919F918F9105
S11310507F916F915F914F913F912F910F900BBEB4
S11310600F900FBE0F901F9018951F920F920FB6FE
S11310700F9211240BB60F922F933F934F935F93CC
S11310806F937F938F939F93AF93BF93EF93FF934C
S1131090E0911220F0911320309709F01995FF91F7
S11310A0EF91BF91AF919F918F917F916F915F91DC
S11310B04F913F912F910F900BBE0F900FBE0F9049
S11310C01F9018951F920F920FB60F9211240BB612
S11310D00F922F933F934F935F936F937F938F93CD
S11310E09F93AF93BF93EF93FF93E0911020F09100
S11310F01120309709F01995FF91EF91BF91AF91AD
S11311009F918F917F916F915F914F913F912F911B
S11311100F900BBE0F900FBE0F901F9018951F924B
S11311200F920FB60F9211240BB60F922F933F9389
S11311304F935F936F937F938F939F93AF93BF93DB
S1131140EF93FF93E0910E20F0910F20309709F078
S11311501995FF91EF91BF91AF919F918F917F91DD
S11311606F915F914F913F912F910F900BBE0F9014
S11311700FBE0F901F9018951F920F920FB60F92EB
S113118011240BB60F922F933F934F935F936F935A
S11311907F938F939F93AF93BF93EF93FF93E091CC
S11311A00C20F0910D20309709F01995FF91EF91E3
S11311B0BF91AF919F918F917F916F915F914F916B
S11311C03F912F910F900BBE0F900FBE0F901F9069
S11311D018951F920F920FB60F9211240BB60F920F
S11311E02F933F934F935F936F937F938F939F932B
S11311F0AF93BF93EF93FF93E0910A20F0910B20FC
S1131200309709F01995FF91EF91BF91AF919F919C
S11312108F917F916F915F914F913F912F910F909B
S11312200BBE0F900FBE0F901F9018951F920F9238
S11312300FB60F9211240BB60F922F933F934F9337
S11312405F936F937F938F939F93AF93BF93EF932A
S1131250FF93E0910820F0910920309709F0199547
S1131260FF91EF91BF91AF919F918F917F916F917A
S11312705F914F913F912F910F900BBE0F900FBE36
S11312800F901F901895EF92FF920F931F93CF9397
S1131290DF937C018B01EA01209741F0F801619111
S11312A08F01C7010BD021972097C1F780E0DF9110
S11312B0CF911F910F91FF90EF900895FC018181D0
S11312C085FFFDCF608380E090E00895FC0181817B
S11312D08823ECF7808108954F925F926F927F92FA
S11312E08F929F92AF92BF92CF92DF92EF92FF9232
S11312F00F931F93CF93DF93EC014A015B01280105
S11313003901D901C801689412F8B695A795979543
S113131087951694D1F7B901A801032E36E1769585
S11313206795579547953A95D1F7302D2C8122FD35
S113133008C0B695A795979587957695679557951F
S1131340479588159905AA05BB0508F4A6C0841617
S11313509506A606B70608F4A2C08C8182FD04C0D7
S1131360880C991CAA1CBB1CC301B201A5019401E1
S11313700E94E6122F3F31054105510508F491C042
S1131380C12CD12C7601CA9419EF05C02C153D054A
S11313904E055F0568F0CC0CDD1CEE1CFF1C1D3FE8
S11313A014F46894C0F81F5F173081F7212F50C0E0
S11313B0212F11230CF04CC0D501C401880F991FB3
S11313C0AA1FBB1F880F991FAA1FBB1F880F991F35
S11313D0AA1FBB1F481A590A6A0A7B0A1E3FF4F463
S11313E06DEF7FEF611B710917FD739504C0440C09
S11313F0551C661C771C6A95D2F7D501C401B695B5
S1131400A79597958795BC01CD01640D751D861D23
S1131410971DA50194010E94E61236C023E0210F16
S1131420D501C40104C0880F991FAA1FBB1F2A95A8
S1131430D2F79C01AD01B695A79597958795BC0108
S1131440CD01640D751D861D971D0E94E6121CC0FA
S11314502D5FD501C40104C0880F991FAA1FBB1FAB
S11314602A95D2F79C01AD01B695A79597958795D6
S1131470BC01CD01640D751D861D971D0E94E612E9
S11314802150310941095109832F8F701295107F22
S1131490182B1F832E8381E018C080E016C080E0E3
S11314A014C0D501C401880F991FAA1FBB1F880F40
S11314B0991FAA1FBB1F880F991FAA1FBB1F481A79
S11314C0590A6A0A7B0A19EF8BCFDF91CF911F91DA
S11314D00F91FF90EF90DF90CF90BF90AF909F90CF
S11314E08F907F906F905F904F9008950F931F930C
S11314F0CF93DF93EC018B01009709F4E6C0803CA5
S1131500910521F460E180E0F6D3DFC0C03881E0CA
S1131510D80721F462E080E0EED3D7C0C115E1E042
S1131520DE0721F461E080E0E6D3CFC0C038F3E009
S1131530DF0721F461E081E0DED3C7C0C03983E076
S1131540D80721F461E082E0D6D3BFC0C115E2E040
S1131550DE0721F462E081E0CED3B7C0C034F2E00C
S1131560DF0721F462E082E0C6D3AFC0C03283E07B
S1131570D80721F464E082E0BED3A7C0C115E8E037
S1131580DE0721F461E083E0B6D39FC0C115F9E022
S1131590DF0721F461E084E0AED397C0C1158AE08F
S11315A0D80721F461E085E0A6D38FC0C115EBE034
S11315B0DE0721F461E086E09ED387C0C034F8E002
S11315C0DF0721F462E083E096D37FC0C03489E072
S11315D0D80721F462E084E08ED377C0C034EAE017
S11315E0DE0721F462E085E086D36FC0C039F8E0FD
S11315F0DF0721F464E083E07ED367C0C03989E06B
S1131600D80721F464E084E076D35FC0C039EAE00F
S1131610DE0721F464E085E06ED357C0C039FBE0F7
S1131620DF0721F464E086E066D34FC0C03C88E065
S1131630D80721F468E083E05ED347C0C03CE9E00A
S1131640DE0721F468E084E056D33FC0C03AF8E0F6
S1131650DF0721F460E183E04ED337C0C03A89E06C
S1131660D80721F460E184E046D32FC0C03AEAE011
S1131670DE0721F460E185E03ED327C0C03AFBE0F9
S1131680DF0721F460E186E036D31FC0C03B88E069
S1131690D80721F460E283E02ED317C0C03BE9E011
S11316A0DE0721F460E284E026D30FC0C038F4E002
S11316B0DF0721F460E483E01ED307C0C03A84E06E
S11316C0D80719F460E485E016D38D818F738D8378
S11316D0F80194818581892B9681992311F098E0F2
S11316E001C090E0892B8D83F80140815181628192
S11316F0738100E018E428EE31E0CE01EDDD9C8139
S113170098609C839C8190619C83DF91CF911F9111
S11317100F910895811522E0920761F48091512080
S113172091E0980F90935120811112C062E081E002
S1131730E2C208958034924059F48091502091E09F
S1131740980F90935020811103C062E082E0D3C2CD
S11317500895811522E0920759F480915120815017
S113176080935120811111C062E081E0D0C20895BC
S11317708034924051F480915020815080935020C5
S1131780811103C062E082E0C2C208951F93CF9327
S1131790DF93EC011FB7F894BDDF888181608883F3
S11317A01FBF8FB7F894EFE5F0E290819F5F9083BD
S11317B08FBFDF91CF911F9108951F920F920FB6A3
S11317C00F9211240BB60F922F933F934F935F9375
S11317D06F937F938F939F93AF93BF93EF93FF93F5
S11317E0E0E0F2E044A155A1E0915C20F0915D209D
S11317F061E080E092E01995FF91EF91BF91AF9184
S11318009F918F917F916F915F914F913F912F9114
S11318100F900BBE0F900FBE0F901F9018951F9244
S11318200F920FB60F9211240BB60F922F933F9382
S11318304F935F936F937F938F939F93AF93BF93D4
S1131840EF93FF93E8E2F2E044815581E0915C205C
S1131850F0915D2062E080E092E01995FF91EF91B4
S1131860BF91AF919F918F917F916F915F914F91B4
S11318703F912F910F900BBE0F900FBE0F901F90B2
S113188018951F920F920FB60F9211240BB60F9258
S11318902F933F934F935F936F937F938F939F9374
S11318A0AF93BF93EF93FF93E0E3F2E0448155815C
S11318B0E0915C20F0915D2064E080E092E0199575
S11318C0FF91EF91BF91AF919F918F917F916F9114
S11318D05F914F913F912F910F900BBE0F900FBED0
S11318E00F901F9018951F920F920FB60F9211240C
S11318F00BB60F922F933F934F935F936F937F9306
S11319008F939F93AF93BF93EF93FF93E8E3F2E03A
S113191044815581E0915C20F0915D2068E080E095
S113192092E01995FF91EF91BF91AF919F918F91A3
S11319307F916F915F914F913F912F910F900BBECB
S11319400F900FBE0F901F9018951F920F920FB615
S11319500F9211240BB60F922F933F934F935F93E3
S11319606F937F938F939F93AF93BF93EF93FF9363
S1131970E0E4F2E044A155A1E0915A20F0915B200B
S113198061E080E492E01995FF91EF91BF91AF91EE
S11319909F918F917F916F915F914F913F912F9183
S11319A00F900BBE0F900FBE0F901F9018951F92B3
S11319B00F920FB60F9211240BB60F922F933F93F1
S11319C04F935F936F937F938F939F93AF93BF9343
S11319D0EF93FF93E8E6F2E044815581E0915A20C9
S11319E0F0915B2062E080E492E01995FF91EF9121
S11319F0BF91AF919F918F917F916F915F914F9123
S1131A003F912F910F900BBE0F900FBE0F901F9020
S1131A1018951F920F920FB60F9211240BB60F92C6
S1131A202F933F934F935F936F937F938F939F93E2
S1131A30AF93BF93EF93FF93E0E7F2E044815581C6
S1131A40E0915A20F0915B2064E080E492E01995E3
S1131A50FF91EF91BF91AF919F918F917F916F9182
S1131A605F914F913F912F910F900BBE0F900FBE3E
S1131A700F901F9018951F920F920FB60F9211247A
S1131A800BB60F922F933F934F935F936F937F9374
S1131A908F939F93AF93BF93EF93FF93E8E7F2E0A5
S1131AA044815581E0915A20F0915B2068E080E404
S1131AB092E01995FF91EF91BF91AF919F918F9112
S1131AC07F916F915F914F913F912F910F900BBE3A
S1131AD00F900FBE0F901F901895DF92EF92FF9218
S1131AE00F931F93CF93DF93EC018B01C11522E079
S1131AF0D20771F461E270E082E014D1E82EF12C97
S1131B0060E270E082E00ED1FE2CEE24E82A10C0E0
S1131B108034924059F565E270E082E003D1E82E0A
S1131B20F12C64E270E082E0FDD0FE2CEE24E82A81
S1131B30DFB6F894CE01EEDD288182E08883EC865E
S1131B40FD86F80185819681888F998F82818A83A9
S1131B5084818C8383818B8381818983822F8170AB
S1131B609081892B8883CE01F4DDDFBEDF91CF9194
S1131B701F910F91FF90EF90DF900895FF920F93C4
S1131B801F93CF93DF93EC018B01FFB6F894C2DD72
S1131B908881807CF8018083888D998D85839683E4
S1131BA08A8182838C8184838B81838389818183ED
S1131BB0CE01CFDDFFBEDF91CF911F910F91FF903A
S1131BC00895CF92DF92EF92FF920F931F93CF93DA
S1131BD0DF937C01D62E8A01862F837029F4962FF9
S1131BE09695969582E002C0962F80E090FF8F5FD5
S1131BF0E701A09698E0899FC00DD11D1124CFB6AE
S1131C00F894C70187DDF8018081888382818A8303
S1131C1081818983D0FE02C083818E83C70199DDCF
S1131C20CFBEDF91CF911F910F91FF90EF90DF9086
S1131C30CF900895CF92DF92EF92FF920F931F936C
S1131C40CF93DF937C01D62EEA01862F837029F48B
S1131C50962F9695969582E002C0962F80E090FF8D
S1131C608F5F8701005E1F4F98E0899F000D111D53
S1131C701124CFB6F894C7014DDDF8018081888323
S1131C8082818A8381818983D0FE02C086818B838D
S1131C90C7015FDDCFBEDF91CF911F910F91FF9000
S1131CA0EF90DF90CF9008958FEF80937000809332
S1131CB0710080937200809373008093740080930A
S1131CC07500809376008FB7F894E0E5F0E090819A
S1131CD0926090838FBF818181FFFDCF61E080E4BA
S1131CE090E02AD08FB7F894E0E5F0E090819E7FF1
S1131CF090838FBF08959FB7F894E82FF0E0E059E0
S1131D00FF4F60958081682360839FBF08959FB7CC
S1131D10F894E82FF0E0E059FF4F8081682B60834E
S1131D209FBF08954091CA01E62FF72F8093CA01FF
S1131D3084914093CA0108951BBEFC0128ED24BF81
S1131D4060830895CF93DF93CDB7DEB72F97CDBFD0
S1131D50DEBFAADF80E2E0E6F6E0818380E8E0E02F
S1131D60F6E081836894FF24F3F8E0E8F6E0F1827A
S1131D70809104208D83809105208E83809106209C
S1131D808F838091002090910120A0910220B09136
S1131D90032089839A83AB83BC8360E185E0ABDF56
S1131DA08E010F5F1F4FB80180EA9AE09FDBB801F4
S1131DB080E092E0E3DEAE01445F5F4F61E080E0EB
S1131DC092E038DF8A81897E9B819F7890629B8331
S1131DD08C608A8383E08D838E858C7F81608E877F
S1131DE081E08C87FD86B80180E092E076DEAE016A
S1131DF0445F5F4F61E080E092E0E3DE80E092E0E8
S1131E00C5DC8BE0F80111928A95E9F780E197E24D
S1131E108D839E838DE98B8380E192E08887998707
S1131E2084E690E28A879B8780E18C8384E08983BF
S1131E300E9403028A81807F85608A83B80180E0E2
S1131E400E94B6028FB7F894E0E1F1E090819068C7
S1131E5090838FBF0F2EC12CF6E0DF2EF02D6894F7
S1131E60992497F80F2EF0E6AF2EF6E0BF2EF02D52
S1131E706894882485F86894EE24E4F8FF24F394A5
S1131E8000E011E080EA9AE021DAF601958280E030
S1131E9090E00196853DF4E19F07D9F7F60196821B
S1131EA0F50187828FB7F894F70190819068908349
S1131EB08FBFF80184818171E1F740E157E264E664
S1131EC070E280EA9AE0DFD9DDCF2F923F924F9201
S1131ED05F926F927F928F929F92AF92BF92CF92B6
S1131EE0DF92EF92FF920F931F93CF93DF93CDB7BF
S1131EF0DEB76397CDBFDEBF7C011B016A01FC0125
S1131F0016821782838181FF49C3BE016F5F7F4FB1
S1131F104B01F7019381F10193FD859193FF819129
S1131F201F01882309F436C3853239F493FD859162
S1131F3093FF81911F01853231F4B70190E056D4AB
S1131F4056016501E6CF10E0512C20E02032A0F4C8
S1131F508B3269F030F4803259F0833269F42061B5
S1131F602CC08D3239F0803339F4216026C02260D0
S1131F70246023C0286021C027FD27C030ED380F1E
S1131F803A3078F426FF06C0FAE01F9F300D112482
S1131F90132F13C06AE0569E300D1124532E206275
S1131FA00CC08E3221F426FDF5C2206406C08C36A6
S1131FB011F4206802C0883641F4F10193FD859143
S1131FC093FF81911F018111C1CF9BEB980F933037
S1131FD018F42061805E06C09BE9980F933008F0E6
S1131FE09AC12F7E26FF16E02F73722E853621F4B8
S1131FF0F22FF0647F2E08C0863621F4622F6068C9
S1132000762E02C01111115077FE07C01C3348F41C
S113201044244394410E27E00BC0183030F4212FA0
S113202006C027E04CE3442E03C027E017E0412C10
S1132030560174E0A70EB11CF601608171818281A2
S11320409381042DA401E4D26C01098100FF02C034
S113205003FF06C071FC07C072FC08C0612C08C0F5
S11320603DE2632E05C02BE2622E02C090E2692E8F
S1132070802F8C7081F1662011F084E001C083E030
S1132080851510F0512C0AC0581A73FC07C0B7010B
S113209080E290E0ABD35A94D1F7F4CF662021F0DC
S11320A0B701862D90E0A2D303FD03C000E012E047
S11320B002C00CEF11E0F72DF0717F2EF80184912E
S11320C0882309F45EC271108052B70190E08ED368
S11320D00F5F1F4FF3CF77FE0FC04C0C04FF04C0FB
S11320E08A81813309F44A94141474F5F8E0F415E0
S11320F078F588E0482E2CC076FC2AC0812F90E029
S11321008C159D059CF06CEFC6166FEFD60674F027
S1132110772D7068772E0AC0E2E0F0E0EC0FFD1F27
S1132120E10FF11D8081803319F411501111F4CFA6
S113213077FE0EC044244394410E812F90E0C816CC
S1132140D9062CF41C1904C04424439401C010E0A3
S113215077FE07C01C141D043CF496012F5F3F4F0B
S113216005C025E030E002C021E030E0662011F037
S11321702F5F3F4F112331F0412F50E04F5F5F4FEE
S1132180240F351F452D50E02417350714F4521A37
S113219001C0512C872D897041F4552031F0B701CD
S11321A080E290E023D35A94F8CF662021F0B7015F
S11321B0862D90E01BD373FC08C0552031F0B70185
S11321C080E390E013D35A94F8CF77FE5DC09C2D42
S11321D08D2DD7FE02C090E080E0692E782E40E07D
S11321E050E0C601841991098C879D8796012619B0
S11321F03709280D391D812F90E0EE27FF27E81BB2
S1132200F90BEE87FF87FFEF6F167F0661F4B701C6
S11322108EE290E02B8B3A8B488B598BE7D259890D
S113222048893A892B89C614D70454F06C857D8576
S1132230661577052CF4F901E40FF51F818101C0BF
S113224080E371E0671A71084F5F5F4FEE85FF8589
S11322506E167F0664F0B70190E02B8B3A8B488BA7
S1132260598BC4D22B893A8948895989CCCF6C14AB
S11322707D0439F49A81963318F4953311F404FFEC
S113228081E3B70190E045C08A81813309F00F7E74
S1132290B70190E0ABD2111105C074FE16C085E4FD
S11322A090E015C0B7018EE290E0A0D282E06624EF
S11322B06394680EF401E80FF11D8081B70190E08A
S11322C095D2115051F3862DF2CF85E690E0B701F7
S11322D08DD2D7FC05C0C114D10439F404FF05C064
S11322E0D194C194D1088DE201C08BE2B70190E092
S11322F07DD280E36AE0C616D1042CF08F5FFAE049
S1132300CF1AD108F7CFB70190E070D2B701C60158
S1132310C0966CD236C1833631F0833779F0833579
S113232009F054C020C0560172E0A70EB11CF6019A
S11323308081898301E010E0640113C05601F2E05A
S1132340AF0EB11CF601C080D18026FF03C0612FFF
S113235070E002C06FEF7FEFC6012B8B3CD28C0183
S11323602B892F7714C05601F2E0AF0EB11CF60191
S1132370C080D18026FF03C0612F70E002C06FEFE0
S11323807FEFC6012B8B1CD28C012B892068722E07
S113239023FD18C0852D90E00817190798F4B7019C
S11323A080E290E023D25A94F5CFF60177FC859130
S11323B077FE81916F01B70190E018D251105A94C1
S11323C0015011090115110581F7DBC0843611F0A4
S11323D0893649F5560127FF09C0F4E0AF0EB11C58
S11323E0F60160817181828193810AC0F2E0AF0EAF
S11323F0B11CF60160817181882777FD8095982F43
S1132400022F0F7697FF08C090958095709561957F
S11324107F4F8F4F9F4F00682AE030E0A40118D20D
S1132420C82EC8183DC0022F853721F40F7E2AE03C
S113243030E01DC0097F8F3691F018F4883559F0CB
S1132440A9C0803719F0883711F0A4C0006104FFD7
S113245009C0046007C024FF08C0066006C028E065
S113246030E005C020E130E002C020E132E0560156
S113247007FF09C0F4E0AF0EB11CF6016081718161
S11324808281938108C0F2E0AF0EB11CF601608135
S1132490718180E090E0A401DBD1C82EC8180F77C9
S11324A006FF0BC0202F2E7FC11650F404FF0AC074
S11324B002FD08C0202F2E7E05C0DC2C202F03C077
S11324C0DC2C01C0D12E24FF0DC0FE01EC0DF11D4A
S11324D08081803311F4297E09C022FF06C0D39481
S11324E0D39404C0822F867809F0D39423FD12C0BC
S11324F020FF06C01C2DD51418F4150D1D19D52C5C
S1132500D51460F4B70180E290E02B8B6FD1D394A3
S11325102B89F6CFD51410F45D1801C0512C24FF7B
S113252011C0B70180E390E02B8B60D12B8922FF8F
S113253016C021FF03C088E590E002C088E790E060
S1132540B7010CC0822F867851F021FD02C080E2D1
S113255001C08BE227FD8DE2B70190E047D1C1169F
S113256030F4B70180E390E041D11150F8CFCA9420
S1132570F401EC0DF11D8081B70190E037D1C11059
S1132580F6CF552009F4DDCCB70180E290E02ED1DE
S11325905A94F7CFF7018681978102C08FEF9FEF9E
S11325A06396CDBFDEBFDF91CF911F910F91FF9056
S11325B0EF90DF90CF90BF90AF909F908F907F90DF
S11325C06F905F904F903F902F900895A1E21A2E44
S11325D0AA1BBB1BFD010DC0AA1FBB1FEE1FFF1FC3
S11325E0A217B307E407F50720F0A21BB30BE40B13
S11325F0F50B661F771F881F991F1A9469F760955A
S11326007095809590959B01AC01BD01CF01089513
S1132610283008F027E03327DA01990F311D87FDB0
S1132620916000966105710539F432602E5F3D9327
S113263030E32A95E1F708959F3F30F08038710523
S1132640610509F03C5F3C5F3D93913008F0806880
S1132650911DDF93CF931F930F93FF92EF92192F46
S1132660987F9695E92F96959695E90FFF27E25A5C
S1132670FD4F99273327EE24FF24A701E701059096
S11326800894079428F4360FE71EF81E491F511DBD
S1132690660F771F881F991F0694A1F7059007946A
S11326A028F4E70EF81E491F561FC11D770F881F17
S11326B0991F661F0694A1F70590079428F4F80E55
S11326C0491F561FC71FD11D880F991F661F771FEB
S11326D00694A1F70590079420F4490F561FC71FCD
S11326E0D81F990F661F771F881F0694A9F7849136
S11326F01095177041F0D695C79557954795F7945F
S1132700E7941A95C1F7E4E0F2E068941590159106
S113271035916591959105907FE27395E118F10AE1
S1132720430B560BC90BD009C0F7E10CF11E431F34
S1132730561FC91FD01D7EF4703311F48A95E6CF5D
S1132740E894015030F0080F0AF40027021708F447
S1132750202F2395022F7A3328F079E37D932A954D
S1132760E9F710C07D932A9589F6069497956795A5
S1132770379517951794E118F10A430B560BC90BBB
S1132780D00998F023957E9173957A3308F070E31D
S11327907C932013B8F77E9170617D9330F083951C
S11327A071E37D9370E32A95E1F71124EF90FF9094
S11327B00F911F91CF91DF91992787FD90950895EF
S11327C0FC010590615070400110D8F780959095F8
S11327D08E0F9F1F0895FC016150704001900110FD
S11327E0D8F7809590958E0F9F1F08950F931F9390
S11327F0CF93DF93182F092FEB018B8181FD03C049
S11328008FEF9FEF20C082FF10C04E815F812C812B
S11328103D81421753077CF4E881F9819F012F5FC2
S11328203F4F28833983108306C0E885F985812FBB
S11328301995892B29F72E813F812F5F3F4F2E83D6
S11328403F83812F902FDF91CF911F910F91089596
S1132850FA01AA27283051F1203181F1E8946F93CD
S11328606E7F6E5F7F4F8F4F9F4FAF4FB1E03ED073
S1132870B4E03CD0670F781F891F9A1FA11D680F11
S1132880791F8A1F911DA11D6A0F711D811D911D44
S1132890A11D20D009F468943F912AE0269F1124B9
S11328A03019305D3193DEF6CF010895462F47701D
S11328B0405D4193B3E00FD0C9F7F6CF462F4F7078
S11328C0405D4A3318F0495D31FD4052419302D0D6
S11328D0A9F7EACFB4E0A69597958795779567957C
S11328E0BA95C9F700976105710508959B01AC017C
S11328F00A2E06945795479537952795BA95C9F7A3
S1132900620F731F841F951FA01D0895F894FFCFB5
S10B291000100E00030000009A
S9030000FC
